{
	"veloOracle.sol": {
		"VeloOracle": {
			"abi": [
				{
					"inputs": [],
					"name": "V3Pool",
					"outputs": [
						{
							"internalType": "contract ICLPoolDerivedState",
							"name": "",
							"type": "address"
						}
					],
					"stateMutability": "view",
					"type": "function"
				},
				{
					"inputs": [
						{
							"internalType": "address",
							"name": "pool",
							"type": "address"
						}
					],
					"name": "getPrice",
					"outputs": [
						{
							"internalType": "uint256",
							"name": "price",
							"type": "uint256"
						}
					],
					"stateMutability": "view",
					"type": "function"
				}
			],
			"devdoc": {
				"kind": "dev",
				"methods": {},
				"version": 1
			},
			"evm": {
				"assembly": "    /* \"veloOracle.sol\":1156:2742  contract VeloOracle {... */\n  mstore(0x40, 0x80)\n  callvalue\n  dup1\n  iszero\n  tag_1\n  jumpi\n  0x00\n  dup1\n  revert\ntag_1:\n  pop\n  dataSize(sub_0)\n  dup1\n  dataOffset(sub_0)\n  0x00\n  codecopy\n  0x00\n  return\nstop\n\nsub_0: assembly {\n        /* \"veloOracle.sol\":1156:2742  contract VeloOracle {... */\n      mstore(0x40, 0x80)\n      callvalue\n      dup1\n      iszero\n      tag_1\n      jumpi\n      0x00\n      dup1\n      revert\n    tag_1:\n      pop\n      jumpi(tag_2, lt(calldatasize, 0x04))\n      shr(0xe0, calldataload(0x00))\n      dup1\n      0x11ea5441\n      eq\n      tag_3\n      jumpi\n      dup1\n      0x41976e09\n      eq\n      tag_4\n      jumpi\n    tag_2:\n      0x00\n      dup1\n      revert\n        /* \"veloOracle.sol\":1179:1212  ICLPoolDerivedState public V3Pool */\n    tag_3:\n      tag_5\n      tag_6\n      jump\t// in\n    tag_5:\n      mload(0x40)\n      dup1\n      dup3\n      0xffffffffffffffffffffffffffffffffffffffff\n      and\n      dup2\n      mstore\n      0x20\n      add\n      swap2\n      pop\n      pop\n      mload(0x40)\n      dup1\n      swap2\n      sub\n      swap1\n      return\n        /* \"veloOracle.sol\":1216:2739  function getPrice(address pool) public view returns (uint256 price) {... */\n    tag_4:\n      tag_7\n      0x04\n      dup1\n      calldatasize\n      sub\n      0x20\n      dup2\n      lt\n      iszero\n      tag_8\n      jumpi\n      0x00\n      dup1\n      revert\n    tag_8:\n      dup2\n      add\n      swap1\n      dup1\n      dup1\n      calldataload\n      0xffffffffffffffffffffffffffffffffffffffff\n      and\n      swap1\n      0x20\n      add\n      swap1\n      swap3\n      swap2\n      swap1\n      pop\n      pop\n      pop\n      tag_9\n      jump\t// in\n    tag_7:\n      mload(0x40)\n      dup1\n      dup3\n      dup2\n      mstore\n      0x20\n      add\n      swap2\n      pop\n      pop\n      mload(0x40)\n      dup1\n      swap2\n      sub\n      swap1\n      return\n        /* \"veloOracle.sol\":1179:1212  ICLPoolDerivedState public V3Pool */\n    tag_6:\n      0x00\n      dup1\n      sload\n      swap1\n      0x0100\n      exp\n      swap1\n      div\n      0xffffffffffffffffffffffffffffffffffffffff\n      and\n      dup2\n      jump\t// out\n        /* \"veloOracle.sol\":1216:2739  function getPrice(address pool) public view returns (uint256 price) {... */\n    tag_9:\n        /* \"veloOracle.sol\":1269:1282  uint256 price */\n      0x00\n        /* \"veloOracle.sol\":1314:1315  0 */\n      dup1\n        /* \"veloOracle.sol\":1298:1316  pool != address(0) */\n      0xffffffffffffffffffffffffffffffffffffffff\n      and\n        /* \"veloOracle.sol\":1298:1302  pool */\n      dup3\n        /* \"veloOracle.sol\":1298:1316  pool != address(0) */\n      0xffffffffffffffffffffffffffffffffffffffff\n      and\n      eq\n      iszero\n        /* \"veloOracle.sol\":1290:1341  require(pool != address(0), \"Invalid pool address\") */\n      tag_11\n      jumpi\n      mload(0x40)\n      0x08c379a000000000000000000000000000000000000000000000000000000000\n      dup2\n      mstore\n      0x04\n      add\n      dup1\n      dup1\n      0x20\n      add\n      dup3\n      dup2\n      sub\n      dup3\n      mstore\n      0x14\n      dup2\n      mstore\n      0x20\n      add\n      dup1\n      0x496e76616c696420706f6f6c2061646472657373000000000000000000000000\n      dup2\n      mstore\n      pop\n      0x20\n      add\n      swap2\n      pop\n      pop\n      mload(0x40)\n      dup1\n      swap2\n      sub\n      swap1\n      revert\n    tag_11:\n        /* \"veloOracle.sol\":1348:1362  address token0 */\n      0x00\n        /* \"veloOracle.sol\":1373:1377  pool */\n      dup3\n        /* \"veloOracle.sol\":1365:1385  ICLPool(pool).token0 */\n      0xffffffffffffffffffffffffffffffffffffffff\n      and\n      0x0dfe1681\n        /* \"veloOracle.sol\":1365:1387  ICLPool(pool).token0() */\n      mload(0x40)\n      dup2\n      0xffffffff\n      and\n      0xe0\n      shl\n      dup2\n      mstore\n      0x04\n      add\n      0x20\n      mload(0x40)\n      dup1\n      dup4\n      sub\n      dup2\n      dup7\n      dup1\n      extcodesize\n      iszero\n      dup1\n      iszero\n      tag_12\n      jumpi\n      0x00\n      dup1\n      revert\n    tag_12:\n      pop\n      gas\n      staticcall\n      iszero\n      dup1\n      iszero\n      tag_14\n      jumpi\n      returndatasize\n      0x00\n      dup1\n      returndatacopy\n      revert(0x00, returndatasize)\n    tag_14:\n      pop\n      pop\n      pop\n      pop\n      mload(0x40)\n      returndatasize\n      0x20\n      dup2\n      lt\n      iszero\n      tag_15\n      jumpi\n      0x00\n      dup1\n      revert\n    tag_15:\n      dup2\n      add\n      swap1\n      dup1\n      dup1\n      mload\n      swap1\n      0x20\n      add\n      swap1\n      swap3\n      swap2\n      swap1\n      pop\n      pop\n      pop\n        /* \"veloOracle.sol\":1348:1387  address token0 = ICLPool(pool).token0() */\n      swap1\n      pop\n        /* \"veloOracle.sol\":1393:1407  address token1 */\n      0x00\n        /* \"veloOracle.sol\":1418:1422  pool */\n      dup4\n        /* \"veloOracle.sol\":1410:1430  ICLPool(pool).token1 */\n      0xffffffffffffffffffffffffffffffffffffffff\n      and\n      0xd21220a7\n        /* \"veloOracle.sol\":1410:1432  ICLPool(pool).token1() */\n      mload(0x40)\n      dup2\n      0xffffffff\n      and\n      0xe0\n      shl\n      dup2\n      mstore\n      0x04\n      add\n      0x20\n      mload(0x40)\n      dup1\n      dup4\n      sub\n      dup2\n      dup7\n      dup1\n      extcodesize\n      iszero\n      dup1\n      iszero\n      tag_16\n      jumpi\n      0x00\n      dup1\n      revert\n    tag_16:\n      pop\n      gas\n      staticcall\n      iszero\n      dup1\n      iszero\n      tag_18\n      jumpi\n      returndatasize\n      0x00\n      dup1\n      returndatacopy\n      revert(0x00, returndatasize)\n    tag_18:\n      pop\n      pop\n      pop\n      pop\n      mload(0x40)\n      returndatasize\n      0x20\n      dup2\n      lt\n      iszero\n      tag_19\n      jumpi\n      0x00\n      dup1\n      revert\n    tag_19:\n      dup2\n      add\n      swap1\n      dup1\n      dup1\n      mload\n      swap1\n      0x20\n      add\n      swap1\n      swap3\n      swap2\n      swap1\n      pop\n      pop\n      pop\n        /* \"veloOracle.sol\":1393:1432  address token1 = ICLPool(pool).token1() */\n      swap1\n      pop\n        /* \"veloOracle.sol\":1464:1465  0 */\n      0x00\n        /* \"veloOracle.sol\":1446:1466  token0 != address(0) */\n      0xffffffffffffffffffffffffffffffffffffffff\n      and\n        /* \"veloOracle.sol\":1446:1452  token0 */\n      dup3\n        /* \"veloOracle.sol\":1446:1466  token0 != address(0) */\n      0xffffffffffffffffffffffffffffffffffffffff\n      and\n      eq\n      iszero\n        /* \"veloOracle.sol\":1446:1490  token0 != address(0) && token1 != address(0) */\n      dup1\n      iszero\n      tag_20\n      jumpi\n      pop\n        /* \"veloOracle.sol\":1488:1489  0 */\n      0x00\n        /* \"veloOracle.sol\":1470:1490  token1 != address(0) */\n      0xffffffffffffffffffffffffffffffffffffffff\n      and\n        /* \"veloOracle.sol\":1470:1476  token1 */\n      dup2\n        /* \"veloOracle.sol\":1470:1490  token1 != address(0) */\n      0xffffffffffffffffffffffffffffffffffffffff\n      and\n      eq\n      iszero\n        /* \"veloOracle.sol\":1446:1490  token0 != address(0) && token1 != address(0) */\n    tag_20:\n        /* \"veloOracle.sol\":1438:1509  require(token0 != address(0) && token1 != address(0), \"Invalid tokens\") */\n      tag_21\n      jumpi\n      mload(0x40)\n      0x08c379a000000000000000000000000000000000000000000000000000000000\n      dup2\n      mstore\n      0x04\n      add\n      dup1\n      dup1\n      0x20\n      add\n      dup3\n      dup2\n      sub\n      dup3\n      mstore\n      0x0e\n      dup2\n      mstore\n      0x20\n      add\n      dup1\n      0x496e76616c696420746f6b656e73000000000000000000000000000000000000\n      dup2\n      mstore\n      pop\n      0x20\n      add\n      swap2\n      pop\n      pop\n      mload(0x40)\n      dup1\n      swap2\n      sub\n      swap1\n      revert\n    tag_21:\n        /* \"veloOracle.sol\":1516:1526  uint8 dec0 */\n      0x00\n        /* \"veloOracle.sol\":1536:1542  token0 */\n      dup3\n        /* \"veloOracle.sol\":1529:1552  IERC20(token0).decimals */\n      0xffffffffffffffffffffffffffffffffffffffff\n      and\n      0x313ce567\n        /* \"veloOracle.sol\":1529:1554  IERC20(token0).decimals() */\n      mload(0x40)\n      dup2\n      0xffffffff\n      and\n      0xe0\n      shl\n      dup2\n      mstore\n      0x04\n      add\n      0x20\n      mload(0x40)\n      dup1\n      dup4\n      sub\n      dup2\n      dup7\n      dup1\n      extcodesize\n      iszero\n      dup1\n      iszero\n      tag_22\n      jumpi\n      0x00\n      dup1\n      revert\n    tag_22:\n      pop\n      gas\n      staticcall\n      iszero\n      dup1\n      iszero\n      tag_24\n      jumpi\n      returndatasize\n      0x00\n      dup1\n      returndatacopy\n      revert(0x00, returndatasize)\n    tag_24:\n      pop\n      pop\n      pop\n      pop\n      mload(0x40)\n      returndatasize\n      0x20\n      dup2\n      lt\n      iszero\n      tag_25\n      jumpi\n      0x00\n      dup1\n      revert\n    tag_25:\n      dup2\n      add\n      swap1\n      dup1\n      dup1\n      mload\n      swap1\n      0x20\n      add\n      swap1\n      swap3\n      swap2\n      swap1\n      pop\n      pop\n      pop\n        /* \"veloOracle.sol\":1516:1554  uint8 dec0 = IERC20(token0).decimals() */\n      swap1\n      pop\n        /* \"veloOracle.sol\":1560:1570  uint8 dec1 */\n      0x00\n        /* \"veloOracle.sol\":1580:1586  token1 */\n      dup3\n        /* \"veloOracle.sol\":1573:1596  IERC20(token1).decimals */\n      0xffffffffffffffffffffffffffffffffffffffff\n      and\n      0x313ce567\n        /* \"veloOracle.sol\":1573:1598  IERC20(token1).decimals() */\n      mload(0x40)\n      dup2\n      0xffffffff\n      and\n      0xe0\n      shl\n      dup2\n      mstore\n      0x04\n      add\n      0x20\n      mload(0x40)\n      dup1\n      dup4\n      sub\n      dup2\n      dup7\n      dup1\n      extcodesize\n      iszero\n      dup1\n      iszero\n      tag_26\n      jumpi\n      0x00\n      dup1\n      revert\n    tag_26:\n      pop\n      gas\n      staticcall\n      iszero\n      dup1\n      iszero\n      tag_28\n      jumpi\n      returndatasize\n      0x00\n      dup1\n      returndatacopy\n      revert(0x00, returndatasize)\n    tag_28:\n      pop\n      pop\n      pop\n      pop\n      mload(0x40)\n      returndatasize\n      0x20\n      dup2\n      lt\n      iszero\n      tag_29\n      jumpi\n      0x00\n      dup1\n      revert\n    tag_29:\n      dup2\n      add\n      swap1\n      dup1\n      dup1\n      mload\n      swap1\n      0x20\n      add\n      swap1\n      swap3\n      swap2\n      swap1\n      pop\n      pop\n      pop\n        /* \"veloOracle.sol\":1560:1598  uint8 dec1 = IERC20(token1).decimals() */\n      swap1\n      pop\n        /* \"veloOracle.sol\":1608:1618  int24 tick */\n      0x00\n        /* \"veloOracle.sol\":1643:1647  pool */\n      dup7\n        /* \"veloOracle.sol\":1630:1654  ICLPoolState(pool).slot0 */\n      0xffffffffffffffffffffffffffffffffffffffff\n      and\n      0x3850c7bd\n        /* \"veloOracle.sol\":1630:1656  ICLPoolState(pool).slot0() */\n      mload(0x40)\n      dup2\n      0xffffffff\n      and\n      0xe0\n      shl\n      dup2\n      mstore\n      0x04\n      add\n      0xc0\n      mload(0x40)\n      dup1\n      dup4\n      sub\n      dup2\n      dup7\n      dup1\n      extcodesize\n      iszero\n      dup1\n      iszero\n      tag_30\n      jumpi\n      0x00\n      dup1\n      revert\n    tag_30:\n      pop\n      gas\n      staticcall\n      iszero\n      dup1\n      iszero\n      tag_32\n      jumpi\n      returndatasize\n      0x00\n      dup1\n      returndatacopy\n      revert(0x00, returndatasize)\n    tag_32:\n      pop\n      pop\n      pop\n      pop\n      mload(0x40)\n      returndatasize\n      0xc0\n      dup2\n      lt\n      iszero\n      tag_33\n      jumpi\n      0x00\n      dup1\n      revert\n    tag_33:\n      dup2\n      add\n      swap1\n      dup1\n      dup1\n      mload\n      swap1\n      0x20\n      add\n      swap1\n      swap3\n      swap2\n      swap1\n      dup1\n      mload\n      swap1\n      0x20\n      add\n      swap1\n      swap3\n      swap2\n      swap1\n      dup1\n      mload\n      swap1\n      0x20\n      add\n      swap1\n      swap3\n      swap2\n      swap1\n      dup1\n      mload\n      swap1\n      0x20\n      add\n      swap1\n      swap3\n      swap2\n      swap1\n      dup1\n      mload\n      swap1\n      0x20\n      add\n      swap1\n      swap3\n      swap2\n      swap1\n      dup1\n      mload\n      swap1\n      0x20\n      add\n      swap1\n      swap3\n      swap2\n      swap1\n      pop\n      pop\n      pop\n        /* \"veloOracle.sol\":1605:1656  (, int24 tick, , , , ) = ICLPoolState(pool).slot0() */\n      pop\n      pop\n      pop\n      pop\n      swap2\n      pop\n      pop\n        /* \"veloOracle.sol\":1663:1683  uint160 sqrtRatioX96 */\n      0x00\n        /* \"veloOracle.sol\":1686:1719  TickMath.getSqrtRatioAtTick(tick) */\n      tag_34\n        /* \"veloOracle.sol\":1714:1718  tick */\n      dup3\n        /* \"veloOracle.sol\":1686:1713  TickMath.getSqrtRatioAtTick */\n      tag_35\n        /* \"veloOracle.sol\":1686:1719  TickMath.getSqrtRatioAtTick(tick) */\n      jump\t// in\n    tag_34:\n        /* \"veloOracle.sol\":1663:1719  uint160 sqrtRatioX96 = TickMath.getSqrtRatioAtTick(tick) */\n      swap1\n      pop\n        /* \"veloOracle.sol\":1745:1746  0 */\n      0x00\n        /* \"veloOracle.sol\":1729:1741  sqrtRatioX96 */\n      dup2\n        /* \"veloOracle.sol\":1729:1746  sqrtRatioX96 == 0 */\n      0xffffffffffffffffffffffffffffffffffffffff\n      and\n      eq\n        /* \"veloOracle.sol\":1725:1756  if (sqrtRatioX96 == 0) return 0 */\n      iszero\n      tag_36\n      jumpi\n        /* \"veloOracle.sol\":1755:1756  0 */\n      0x00\n        /* \"veloOracle.sol\":1748:1756  return 0 */\n      swap7\n      pop\n      pop\n      pop\n      pop\n      pop\n      pop\n      pop\n      jump(tag_10)\n        /* \"veloOracle.sol\":1725:1756  if (sqrtRatioX96 == 0) return 0 */\n    tag_36:\n        /* \"veloOracle.sol\":1875:1892  uint256 ratioX192 */\n      0x00\n        /* \"veloOracle.sol\":1895:1996  FullMath.mulDiv(... */\n      tag_37\n        /* \"veloOracle.sol\":1928:1940  sqrtRatioX96 */\n      dup3\n        /* \"veloOracle.sol\":1920:1941  uint256(sqrtRatioX96) */\n      0xffffffffffffffffffffffffffffffffffffffff\n      and\n        /* \"veloOracle.sol\":1959:1971  sqrtRatioX96 */\n      dup4\n        /* \"veloOracle.sol\":1951:1972  uint256(sqrtRatioX96) */\n      0xffffffffffffffffffffffffffffffffffffffff\n      and\n        /* \"veloOracle.sol\":1982:1990  1 << 192 */\n      0x01000000000000000000000000000000000000000000000000\n        /* \"veloOracle.sol\":1895:1910  FullMath.mulDiv */\n      tag_38\n        /* \"veloOracle.sol\":1895:1996  FullMath.mulDiv(... */\n      jump\t// in\n    tag_37:\n        /* \"veloOracle.sol\":1875:1996  uint256 ratioX192 = FullMath.mulDiv(... */\n      swap1\n      pop\n        /* \"veloOracle.sol\":2039:2055  uint256 priceRaw */\n      0x00\n        /* \"veloOracle.sol\":2058:2095  FullMath.mulDiv(ratioX192, 10**18, 1) */\n      tag_39\n        /* \"veloOracle.sol\":2074:2083  ratioX192 */\n      dup3\n        /* \"veloOracle.sol\":2085:2091  10**18 */\n      0x0de0b6b3a7640000\n        /* \"veloOracle.sol\":2093:2094  1 */\n      0x01\n        /* \"veloOracle.sol\":2058:2073  FullMath.mulDiv */\n      tag_38\n        /* \"veloOracle.sol\":2058:2095  FullMath.mulDiv(ratioX192, 10**18, 1) */\n      jump\t// in\n    tag_39:\n        /* \"veloOracle.sol\":2039:2095  uint256 priceRaw = FullMath.mulDiv(ratioX192, 10**18, 1) */\n      swap1\n      pop\n        /* \"veloOracle.sol\":2255:2269  uint256 adjust */\n      0x00\n        /* \"veloOracle.sol\":2286:2290  dec0 */\n      dup7\n        /* \"veloOracle.sol\":2279:2290  dec1 > dec0 */\n      0xff\n      and\n        /* \"veloOracle.sol\":2279:2283  dec1 */\n      dup7\n        /* \"veloOracle.sol\":2279:2290  dec1 > dec0 */\n      0xff\n      and\n      gt\n        /* \"veloOracle.sol\":2275:2547  if (dec1 > dec0) {... */\n      iszero\n      tag_40\n      jumpi\n        /* \"veloOracle.sol\":2332:2336  dec0 */\n      dup7\n        /* \"veloOracle.sol\":2325:2329  dec1 */\n      dup7\n        /* \"veloOracle.sol\":2325:2336  dec1 - dec0 */\n      sub\n        /* \"veloOracle.sol\":2317:2337  uint256(dec1 - dec0) */\n      0xff\n      and\n        /* \"veloOracle.sol\":2311:2313  10 */\n      0x0a\n        /* \"veloOracle.sol\":2311:2337  10 ** uint256(dec1 - dec0) */\n      exp\n        /* \"veloOracle.sol\":2302:2337  adjust = 10 ** uint256(dec1 - dec0) */\n      swap1\n      pop\n        /* \"veloOracle.sol\":2366:2372  adjust */\n      dup1\n        /* \"veloOracle.sol\":2355:2363  priceRaw */\n      dup3\n        /* \"veloOracle.sol\":2355:2372  priceRaw / adjust */\n      dup2\n      tag_41\n      jumpi\n      invalid\n    tag_41:\n      div\n        /* \"veloOracle.sol\":2347:2372  price = priceRaw / adjust */\n      swap10\n      pop\n        /* \"veloOracle.sol\":2275:2547  if (dec1 > dec0) {... */\n      jump(tag_42)\n    tag_40:\n        /* \"veloOracle.sol\":2396:2400  dec1 */\n      dup6\n        /* \"veloOracle.sol\":2389:2400  dec0 > dec1 */\n      0xff\n      and\n        /* \"veloOracle.sol\":2389:2393  dec0 */\n      dup8\n        /* \"veloOracle.sol\":2389:2400  dec0 > dec1 */\n      0xff\n      and\n      gt\n        /* \"veloOracle.sol\":2385:2547  if (dec0 > dec1) {... */\n      iszero\n      tag_43\n      jumpi\n        /* \"veloOracle.sol\":2442:2446  dec1 */\n      dup6\n        /* \"veloOracle.sol\":2435:2439  dec0 */\n      dup8\n        /* \"veloOracle.sol\":2435:2446  dec0 - dec1 */\n      sub\n        /* \"veloOracle.sol\":2427:2447  uint256(dec0 - dec1) */\n      0xff\n      and\n        /* \"veloOracle.sol\":2421:2423  10 */\n      0x0a\n        /* \"veloOracle.sol\":2421:2447  10 ** uint256(dec0 - dec1) */\n      exp\n        /* \"veloOracle.sol\":2412:2447  adjust = 10 ** uint256(dec0 - dec1) */\n      swap1\n      pop\n        /* \"veloOracle.sol\":2465:2501  FullMath.mulDiv(priceRaw, adjust, 1) */\n      tag_44\n        /* \"veloOracle.sol\":2481:2489  priceRaw */\n      dup3\n        /* \"veloOracle.sol\":2491:2497  adjust */\n      dup3\n        /* \"veloOracle.sol\":2499:2500  1 */\n      0x01\n        /* \"veloOracle.sol\":2465:2480  FullMath.mulDiv */\n      tag_38\n        /* \"veloOracle.sol\":2465:2501  FullMath.mulDiv(priceRaw, adjust, 1) */\n      jump\t// in\n    tag_44:\n        /* \"veloOracle.sol\":2457:2501  price = FullMath.mulDiv(priceRaw, adjust, 1) */\n      swap10\n      pop\n        /* \"veloOracle.sol\":2385:2547  if (dec0 > dec1) {... */\n      jump(tag_45)\n    tag_43:\n        /* \"veloOracle.sol\":2532:2540  priceRaw */\n      dup2\n        /* \"veloOracle.sol\":2524:2540  price = priceRaw */\n      swap10\n      pop\n        /* \"veloOracle.sol\":2385:2547  if (dec0 > dec1) {... */\n    tag_45:\n        /* \"veloOracle.sol\":2275:2547  if (dec1 > dec0) {... */\n    tag_42:\n        /* \"veloOracle.sol\":2724:2736  return price */\n      pop\n      pop\n      pop\n      pop\n      pop\n      pop\n      pop\n      pop\n      pop\n        /* \"veloOracle.sol\":1216:2739  function getPrice(address pool) public view returns (uint256 price) {... */\n    tag_10:\n      swap2\n      swap1\n      pop\n      jump\t// out\n        /* \"libraries/TickMath.sol\":1362:3942  function getSqrtRatioAtTick(int24 tick) internal pure returns (uint160 sqrtPriceX96) {... */\n    tag_35:\n        /* \"libraries/TickMath.sol\":1425:1445  uint160 sqrtPriceX96 */\n      0x00\n        /* \"libraries/TickMath.sol\":1457:1472  uint256 absTick */\n      dup1\n        /* \"libraries/TickMath.sol\":1482:1483  0 */\n      0x00\n        /* \"libraries/TickMath.sol\":1475:1479  tick */\n      dup4\n        /* \"libraries/TickMath.sol\":1475:1483  tick < 0 */\n      0x02\n      signextend\n      slt\n        /* \"libraries/TickMath.sol\":1475:1532  tick < 0 ? uint256(-int256(tick)) : uint256(int256(tick)) */\n      tag_47\n      jumpi\n        /* \"libraries/TickMath.sol\":1526:1530  tick */\n      dup3\n        /* \"libraries/TickMath.sol\":1519:1531  int256(tick) */\n      0x02\n      signextend\n        /* \"libraries/TickMath.sol\":1475:1532  tick < 0 ? uint256(-int256(tick)) : uint256(int256(tick)) */\n      jump(tag_48)\n    tag_47:\n        /* \"libraries/TickMath.sol\":1502:1506  tick */\n      dup3\n        /* \"libraries/TickMath.sol\":1495:1507  int256(tick) */\n      0x02\n      signextend\n        /* \"libraries/TickMath.sol\":1494:1507  -int256(tick) */\n      0x00\n      sub\n        /* \"libraries/TickMath.sol\":1475:1532  tick < 0 ? uint256(-int256(tick)) : uint256(int256(tick)) */\n    tag_48:\n        /* \"libraries/TickMath.sol\":1457:1532  uint256 absTick = tick < 0 ? uint256(-int256(tick)) : uint256(int256(tick)) */\n      swap1\n      pop\n        /* \"libraries/TickMath.sol\":484:491  -887272 */\n      0xfffffffffffffffffffffffffffffffffffffffffffffffffffffffffff27618\n        /* \"libraries/TickMath.sol\":644:653  -MIN_TICK */\n      0x00\n      sub\n        /* \"libraries/TickMath.sol\":1561:1578  uint256(MAX_TICK) */\n      0x02\n      signextend\n        /* \"libraries/TickMath.sol\":1550:1557  absTick */\n      dup2\n        /* \"libraries/TickMath.sol\":1550:1578  absTick <= uint256(MAX_TICK) */\n      gt\n      iszero\n        /* \"libraries/TickMath.sol\":1542:1584  require(absTick <= uint256(MAX_TICK), \"T\") */\n      tag_49\n      jumpi\n      mload(0x40)\n      0x08c379a000000000000000000000000000000000000000000000000000000000\n      dup2\n      mstore\n      0x04\n      add\n      dup1\n      dup1\n      0x20\n      add\n      dup3\n      dup2\n      sub\n      dup3\n      mstore\n      0x01\n      dup2\n      mstore\n      0x20\n      add\n      dup1\n      0x5400000000000000000000000000000000000000000000000000000000000000\n      dup2\n      mstore\n      pop\n      0x20\n      add\n      swap2\n      pop\n      pop\n      mload(0x40)\n      dup1\n      swap2\n      sub\n      swap1\n      revert\n    tag_49:\n        /* \"libraries/TickMath.sol\":1595:1608  uint256 ratio */\n      0x00\n        /* \"libraries/TickMath.sol\":1628:1629  0 */\n      dup1\n        /* \"libraries/TickMath.sol\":1621:1624  0x1 */\n      0x01\n        /* \"libraries/TickMath.sol\":1611:1618  absTick */\n      dup4\n        /* \"libraries/TickMath.sol\":1611:1624  absTick & 0x1 */\n      and\n        /* \"libraries/TickMath.sol\":1611:1629  absTick & 0x1 != 0 */\n      eq\n      iszero\n        /* \"libraries/TickMath.sol\":1611:1704  absTick & 0x1 != 0 ? 0xfffcb933bd6fad37aa2d162d1a594001 : 0x100000000000000000000000000000000 */\n      tag_50\n      jumpi\n        /* \"libraries/TickMath.sol\":1669:1704  0x100000000000000000000000000000000 */\n      0x0100000000000000000000000000000000\n        /* \"libraries/TickMath.sol\":1611:1704  absTick & 0x1 != 0 ? 0xfffcb933bd6fad37aa2d162d1a594001 : 0x100000000000000000000000000000000 */\n      jump(tag_51)\n    tag_50:\n        /* \"libraries/TickMath.sol\":1632:1666  0xfffcb933bd6fad37aa2d162d1a594001 */\n      0xfffcb933bd6fad37aa2d162d1a594001\n        /* \"libraries/TickMath.sol\":1611:1704  absTick & 0x1 != 0 ? 0xfffcb933bd6fad37aa2d162d1a594001 : 0x100000000000000000000000000000000 */\n    tag_51:\n        /* \"libraries/TickMath.sol\":1595:1704  uint256 ratio = absTick & 0x1 != 0 ? 0xfffcb933bd6fad37aa2d162d1a594001 : 0x100000000000000000000000000000000 */\n      0xffffffffffffffffffffffffffffffffff\n      and\n      swap1\n      pop\n        /* \"libraries/TickMath.sol\":1735:1736  0 */\n      0x00\n        /* \"libraries/TickMath.sol\":1728:1731  0x2 */\n      0x02\n        /* \"libraries/TickMath.sol\":1718:1725  absTick */\n      dup4\n        /* \"libraries/TickMath.sol\":1718:1731  absTick & 0x2 */\n      and\n        /* \"libraries/TickMath.sol\":1718:1736  absTick & 0x2 != 0 */\n      eq\n        /* \"libraries/TickMath.sol\":1714:1797  if (absTick & 0x2 != 0) ratio = (ratio * 0xfff97272373d413259a46990580e213a) >> 128 */\n      tag_52\n      jumpi\n        /* \"libraries/TickMath.sol\":1794:1797  128 */\n      0x80\n        /* \"libraries/TickMath.sol\":1755:1789  0xfff97272373d413259a46990580e213a */\n      0xfff97272373d413259a46990580e213a\n        /* \"libraries/TickMath.sol\":1747:1752  ratio */\n      dup3\n        /* \"libraries/TickMath.sol\":1747:1789  ratio * 0xfff97272373d413259a46990580e213a */\n      mul\n        /* \"libraries/TickMath.sol\":1746:1797  (ratio * 0xfff97272373d413259a46990580e213a) >> 128 */\n      swap1\n      shr\n        /* \"libraries/TickMath.sol\":1738:1797  ratio = (ratio * 0xfff97272373d413259a46990580e213a) >> 128 */\n      swap1\n      pop\n        /* \"libraries/TickMath.sol\":1714:1797  if (absTick & 0x2 != 0) ratio = (ratio * 0xfff97272373d413259a46990580e213a) >> 128 */\n    tag_52:\n        /* \"libraries/TickMath.sol\":1828:1829  0 */\n      0x00\n        /* \"libraries/TickMath.sol\":1821:1824  0x4 */\n      0x04\n        /* \"libraries/TickMath.sol\":1811:1818  absTick */\n      dup4\n        /* \"libraries/TickMath.sol\":1811:1824  absTick & 0x4 */\n      and\n        /* \"libraries/TickMath.sol\":1811:1829  absTick & 0x4 != 0 */\n      eq\n        /* \"libraries/TickMath.sol\":1807:1890  if (absTick & 0x4 != 0) ratio = (ratio * 0xfff2e50f5f656932ef12357cf3c7fdcc) >> 128 */\n      tag_53\n      jumpi\n        /* \"libraries/TickMath.sol\":1887:1890  128 */\n      0x80\n        /* \"libraries/TickMath.sol\":1848:1882  0xfff2e50f5f656932ef12357cf3c7fdcc */\n      0xfff2e50f5f656932ef12357cf3c7fdcc\n        /* \"libraries/TickMath.sol\":1840:1845  ratio */\n      dup3\n        /* \"libraries/TickMath.sol\":1840:1882  ratio * 0xfff2e50f5f656932ef12357cf3c7fdcc */\n      mul\n        /* \"libraries/TickMath.sol\":1839:1890  (ratio * 0xfff2e50f5f656932ef12357cf3c7fdcc) >> 128 */\n      swap1\n      shr\n        /* \"libraries/TickMath.sol\":1831:1890  ratio = (ratio * 0xfff2e50f5f656932ef12357cf3c7fdcc) >> 128 */\n      swap1\n      pop\n        /* \"libraries/TickMath.sol\":1807:1890  if (absTick & 0x4 != 0) ratio = (ratio * 0xfff2e50f5f656932ef12357cf3c7fdcc) >> 128 */\n    tag_53:\n        /* \"libraries/TickMath.sol\":1921:1922  0 */\n      0x00\n        /* \"libraries/TickMath.sol\":1914:1917  0x8 */\n      0x08\n        /* \"libraries/TickMath.sol\":1904:1911  absTick */\n      dup4\n        /* \"libraries/TickMath.sol\":1904:1917  absTick & 0x8 */\n      and\n        /* \"libraries/TickMath.sol\":1904:1922  absTick & 0x8 != 0 */\n      eq\n        /* \"libraries/TickMath.sol\":1900:1983  if (absTick & 0x8 != 0) ratio = (ratio * 0xffe5caca7e10e4e61c3624eaa0941cd0) >> 128 */\n      tag_54\n      jumpi\n        /* \"libraries/TickMath.sol\":1980:1983  128 */\n      0x80\n        /* \"libraries/TickMath.sol\":1941:1975  0xffe5caca7e10e4e61c3624eaa0941cd0 */\n      0xffe5caca7e10e4e61c3624eaa0941cd0\n        /* \"libraries/TickMath.sol\":1933:1938  ratio */\n      dup3\n        /* \"libraries/TickMath.sol\":1933:1975  ratio * 0xffe5caca7e10e4e61c3624eaa0941cd0 */\n      mul\n        /* \"libraries/TickMath.sol\":1932:1983  (ratio * 0xffe5caca7e10e4e61c3624eaa0941cd0) >> 128 */\n      swap1\n      shr\n        /* \"libraries/TickMath.sol\":1924:1983  ratio = (ratio * 0xffe5caca7e10e4e61c3624eaa0941cd0) >> 128 */\n      swap1\n      pop\n        /* \"libraries/TickMath.sol\":1900:1983  if (absTick & 0x8 != 0) ratio = (ratio * 0xffe5caca7e10e4e61c3624eaa0941cd0) >> 128 */\n    tag_54:\n        /* \"libraries/TickMath.sol\":2015:2016  0 */\n      0x00\n        /* \"libraries/TickMath.sol\":2007:2011  0x10 */\n      0x10\n        /* \"libraries/TickMath.sol\":1997:2004  absTick */\n      dup4\n        /* \"libraries/TickMath.sol\":1997:2011  absTick & 0x10 */\n      and\n        /* \"libraries/TickMath.sol\":1997:2016  absTick & 0x10 != 0 */\n      eq\n        /* \"libraries/TickMath.sol\":1993:2077  if (absTick & 0x10 != 0) ratio = (ratio * 0xffcb9843d60f6159c9db58835c926644) >> 128 */\n      tag_55\n      jumpi\n        /* \"libraries/TickMath.sol\":2074:2077  128 */\n      0x80\n        /* \"libraries/TickMath.sol\":2035:2069  0xffcb9843d60f6159c9db58835c926644 */\n      0xffcb9843d60f6159c9db58835c926644\n        /* \"libraries/TickMath.sol\":2027:2032  ratio */\n      dup3\n        /* \"libraries/TickMath.sol\":2027:2069  ratio * 0xffcb9843d60f6159c9db58835c926644 */\n      mul\n        /* \"libraries/TickMath.sol\":2026:2077  (ratio * 0xffcb9843d60f6159c9db58835c926644) >> 128 */\n      swap1\n      shr\n        /* \"libraries/TickMath.sol\":2018:2077  ratio = (ratio * 0xffcb9843d60f6159c9db58835c926644) >> 128 */\n      swap1\n      pop\n        /* \"libraries/TickMath.sol\":1993:2077  if (absTick & 0x10 != 0) ratio = (ratio * 0xffcb9843d60f6159c9db58835c926644) >> 128 */\n    tag_55:\n        /* \"libraries/TickMath.sol\":2109:2110  0 */\n      0x00\n        /* \"libraries/TickMath.sol\":2101:2105  0x20 */\n      0x20\n        /* \"libraries/TickMath.sol\":2091:2098  absTick */\n      dup4\n        /* \"libraries/TickMath.sol\":2091:2105  absTick & 0x20 */\n      and\n        /* \"libraries/TickMath.sol\":2091:2110  absTick & 0x20 != 0 */\n      eq\n        /* \"libraries/TickMath.sol\":2087:2171  if (absTick & 0x20 != 0) ratio = (ratio * 0xff973b41fa98c081472e6896dfb254c0) >> 128 */\n      tag_56\n      jumpi\n        /* \"libraries/TickMath.sol\":2168:2171  128 */\n      0x80\n        /* \"libraries/TickMath.sol\":2129:2163  0xff973b41fa98c081472e6896dfb254c0 */\n      0xff973b41fa98c081472e6896dfb254c0\n        /* \"libraries/TickMath.sol\":2121:2126  ratio */\n      dup3\n        /* \"libraries/TickMath.sol\":2121:2163  ratio * 0xff973b41fa98c081472e6896dfb254c0 */\n      mul\n        /* \"libraries/TickMath.sol\":2120:2171  (ratio * 0xff973b41fa98c081472e6896dfb254c0) >> 128 */\n      swap1\n      shr\n        /* \"libraries/TickMath.sol\":2112:2171  ratio = (ratio * 0xff973b41fa98c081472e6896dfb254c0) >> 128 */\n      swap1\n      pop\n        /* \"libraries/TickMath.sol\":2087:2171  if (absTick & 0x20 != 0) ratio = (ratio * 0xff973b41fa98c081472e6896dfb254c0) >> 128 */\n    tag_56:\n        /* \"libraries/TickMath.sol\":2203:2204  0 */\n      0x00\n        /* \"libraries/TickMath.sol\":2195:2199  0x40 */\n      0x40\n        /* \"libraries/TickMath.sol\":2185:2192  absTick */\n      dup4\n        /* \"libraries/TickMath.sol\":2185:2199  absTick & 0x40 */\n      and\n        /* \"libraries/TickMath.sol\":2185:2204  absTick & 0x40 != 0 */\n      eq\n        /* \"libraries/TickMath.sol\":2181:2265  if (absTick & 0x40 != 0) ratio = (ratio * 0xff2ea16466c96a3843ec78b326b52861) >> 128 */\n      tag_57\n      jumpi\n        /* \"libraries/TickMath.sol\":2262:2265  128 */\n      0x80\n        /* \"libraries/TickMath.sol\":2223:2257  0xff2ea16466c96a3843ec78b326b52861 */\n      0xff2ea16466c96a3843ec78b326b52861\n        /* \"libraries/TickMath.sol\":2215:2220  ratio */\n      dup3\n        /* \"libraries/TickMath.sol\":2215:2257  ratio * 0xff2ea16466c96a3843ec78b326b52861 */\n      mul\n        /* \"libraries/TickMath.sol\":2214:2265  (ratio * 0xff2ea16466c96a3843ec78b326b52861) >> 128 */\n      swap1\n      shr\n        /* \"libraries/TickMath.sol\":2206:2265  ratio = (ratio * 0xff2ea16466c96a3843ec78b326b52861) >> 128 */\n      swap1\n      pop\n        /* \"libraries/TickMath.sol\":2181:2265  if (absTick & 0x40 != 0) ratio = (ratio * 0xff2ea16466c96a3843ec78b326b52861) >> 128 */\n    tag_57:\n        /* \"libraries/TickMath.sol\":2297:2298  0 */\n      0x00\n        /* \"libraries/TickMath.sol\":2289:2293  0x80 */\n      0x80\n        /* \"libraries/TickMath.sol\":2279:2286  absTick */\n      dup4\n        /* \"libraries/TickMath.sol\":2279:2293  absTick & 0x80 */\n      and\n        /* \"libraries/TickMath.sol\":2279:2298  absTick & 0x80 != 0 */\n      eq\n        /* \"libraries/TickMath.sol\":2275:2359  if (absTick & 0x80 != 0) ratio = (ratio * 0xfe5dee046a99a2a811c461f1969c3053) >> 128 */\n      tag_58\n      jumpi\n        /* \"libraries/TickMath.sol\":2356:2359  128 */\n      0x80\n        /* \"libraries/TickMath.sol\":2317:2351  0xfe5dee046a99a2a811c461f1969c3053 */\n      0xfe5dee046a99a2a811c461f1969c3053\n        /* \"libraries/TickMath.sol\":2309:2314  ratio */\n      dup3\n        /* \"libraries/TickMath.sol\":2309:2351  ratio * 0xfe5dee046a99a2a811c461f1969c3053 */\n      mul\n        /* \"libraries/TickMath.sol\":2308:2359  (ratio * 0xfe5dee046a99a2a811c461f1969c3053) >> 128 */\n      swap1\n      shr\n        /* \"libraries/TickMath.sol\":2300:2359  ratio = (ratio * 0xfe5dee046a99a2a811c461f1969c3053) >> 128 */\n      swap1\n      pop\n        /* \"libraries/TickMath.sol\":2275:2359  if (absTick & 0x80 != 0) ratio = (ratio * 0xfe5dee046a99a2a811c461f1969c3053) >> 128 */\n    tag_58:\n        /* \"libraries/TickMath.sol\":2392:2393  0 */\n      0x00\n        /* \"libraries/TickMath.sol\":2383:2388  0x100 */\n      0x0100\n        /* \"libraries/TickMath.sol\":2373:2380  absTick */\n      dup4\n        /* \"libraries/TickMath.sol\":2373:2388  absTick & 0x100 */\n      and\n        /* \"libraries/TickMath.sol\":2373:2393  absTick & 0x100 != 0 */\n      eq\n        /* \"libraries/TickMath.sol\":2369:2454  if (absTick & 0x100 != 0) ratio = (ratio * 0xfcbe86c7900a88aedcffc83b479aa3a4) >> 128 */\n      tag_59\n      jumpi\n        /* \"libraries/TickMath.sol\":2451:2454  128 */\n      0x80\n        /* \"libraries/TickMath.sol\":2412:2446  0xfcbe86c7900a88aedcffc83b479aa3a4 */\n      0xfcbe86c7900a88aedcffc83b479aa3a4\n        /* \"libraries/TickMath.sol\":2404:2409  ratio */\n      dup3\n        /* \"libraries/TickMath.sol\":2404:2446  ratio * 0xfcbe86c7900a88aedcffc83b479aa3a4 */\n      mul\n        /* \"libraries/TickMath.sol\":2403:2454  (ratio * 0xfcbe86c7900a88aedcffc83b479aa3a4) >> 128 */\n      swap1\n      shr\n        /* \"libraries/TickMath.sol\":2395:2454  ratio = (ratio * 0xfcbe86c7900a88aedcffc83b479aa3a4) >> 128 */\n      swap1\n      pop\n        /* \"libraries/TickMath.sol\":2369:2454  if (absTick & 0x100 != 0) ratio = (ratio * 0xfcbe86c7900a88aedcffc83b479aa3a4) >> 128 */\n    tag_59:\n        /* \"libraries/TickMath.sol\":2487:2488  0 */\n      0x00\n        /* \"libraries/TickMath.sol\":2478:2483  0x200 */\n      0x0200\n        /* \"libraries/TickMath.sol\":2468:2475  absTick */\n      dup4\n        /* \"libraries/TickMath.sol\":2468:2483  absTick & 0x200 */\n      and\n        /* \"libraries/TickMath.sol\":2468:2488  absTick & 0x200 != 0 */\n      eq\n        /* \"libraries/TickMath.sol\":2464:2549  if (absTick & 0x200 != 0) ratio = (ratio * 0xf987a7253ac413176f2b074cf7815e54) >> 128 */\n      tag_60\n      jumpi\n        /* \"libraries/TickMath.sol\":2546:2549  128 */\n      0x80\n        /* \"libraries/TickMath.sol\":2507:2541  0xf987a7253ac413176f2b074cf7815e54 */\n      0xf987a7253ac413176f2b074cf7815e54\n        /* \"libraries/TickMath.sol\":2499:2504  ratio */\n      dup3\n        /* \"libraries/TickMath.sol\":2499:2541  ratio * 0xf987a7253ac413176f2b074cf7815e54 */\n      mul\n        /* \"libraries/TickMath.sol\":2498:2549  (ratio * 0xf987a7253ac413176f2b074cf7815e54) >> 128 */\n      swap1\n      shr\n        /* \"libraries/TickMath.sol\":2490:2549  ratio = (ratio * 0xf987a7253ac413176f2b074cf7815e54) >> 128 */\n      swap1\n      pop\n        /* \"libraries/TickMath.sol\":2464:2549  if (absTick & 0x200 != 0) ratio = (ratio * 0xf987a7253ac413176f2b074cf7815e54) >> 128 */\n    tag_60:\n        /* \"libraries/TickMath.sol\":2582:2583  0 */\n      0x00\n        /* \"libraries/TickMath.sol\":2573:2578  0x400 */\n      0x0400\n        /* \"libraries/TickMath.sol\":2563:2570  absTick */\n      dup4\n        /* \"libraries/TickMath.sol\":2563:2578  absTick & 0x400 */\n      and\n        /* \"libraries/TickMath.sol\":2563:2583  absTick & 0x400 != 0 */\n      eq\n        /* \"libraries/TickMath.sol\":2559:2644  if (absTick & 0x400 != 0) ratio = (ratio * 0xf3392b0822b70005940c7a398e4b70f3) >> 128 */\n      tag_61\n      jumpi\n        /* \"libraries/TickMath.sol\":2641:2644  128 */\n      0x80\n        /* \"libraries/TickMath.sol\":2602:2636  0xf3392b0822b70005940c7a398e4b70f3 */\n      0xf3392b0822b70005940c7a398e4b70f3\n        /* \"libraries/TickMath.sol\":2594:2599  ratio */\n      dup3\n        /* \"libraries/TickMath.sol\":2594:2636  ratio * 0xf3392b0822b70005940c7a398e4b70f3 */\n      mul\n        /* \"libraries/TickMath.sol\":2593:2644  (ratio * 0xf3392b0822b70005940c7a398e4b70f3) >> 128 */\n      swap1\n      shr\n        /* \"libraries/TickMath.sol\":2585:2644  ratio = (ratio * 0xf3392b0822b70005940c7a398e4b70f3) >> 128 */\n      swap1\n      pop\n        /* \"libraries/TickMath.sol\":2559:2644  if (absTick & 0x400 != 0) ratio = (ratio * 0xf3392b0822b70005940c7a398e4b70f3) >> 128 */\n    tag_61:\n        /* \"libraries/TickMath.sol\":2677:2678  0 */\n      0x00\n        /* \"libraries/TickMath.sol\":2668:2673  0x800 */\n      0x0800\n        /* \"libraries/TickMath.sol\":2658:2665  absTick */\n      dup4\n        /* \"libraries/TickMath.sol\":2658:2673  absTick & 0x800 */\n      and\n        /* \"libraries/TickMath.sol\":2658:2678  absTick & 0x800 != 0 */\n      eq\n        /* \"libraries/TickMath.sol\":2654:2739  if (absTick & 0x800 != 0) ratio = (ratio * 0xe7159475a2c29b7443b29c7fa6e889d9) >> 128 */\n      tag_62\n      jumpi\n        /* \"libraries/TickMath.sol\":2736:2739  128 */\n      0x80\n        /* \"libraries/TickMath.sol\":2697:2731  0xe7159475a2c29b7443b29c7fa6e889d9 */\n      0xe7159475a2c29b7443b29c7fa6e889d9\n        /* \"libraries/TickMath.sol\":2689:2694  ratio */\n      dup3\n        /* \"libraries/TickMath.sol\":2689:2731  ratio * 0xe7159475a2c29b7443b29c7fa6e889d9 */\n      mul\n        /* \"libraries/TickMath.sol\":2688:2739  (ratio * 0xe7159475a2c29b7443b29c7fa6e889d9) >> 128 */\n      swap1\n      shr\n        /* \"libraries/TickMath.sol\":2680:2739  ratio = (ratio * 0xe7159475a2c29b7443b29c7fa6e889d9) >> 128 */\n      swap1\n      pop\n        /* \"libraries/TickMath.sol\":2654:2739  if (absTick & 0x800 != 0) ratio = (ratio * 0xe7159475a2c29b7443b29c7fa6e889d9) >> 128 */\n    tag_62:\n        /* \"libraries/TickMath.sol\":2773:2774  0 */\n      0x00\n        /* \"libraries/TickMath.sol\":2763:2769  0x1000 */\n      0x1000\n        /* \"libraries/TickMath.sol\":2753:2760  absTick */\n      dup4\n        /* \"libraries/TickMath.sol\":2753:2769  absTick & 0x1000 */\n      and\n        /* \"libraries/TickMath.sol\":2753:2774  absTick & 0x1000 != 0 */\n      eq\n        /* \"libraries/TickMath.sol\":2749:2835  if (absTick & 0x1000 != 0) ratio = (ratio * 0xd097f3bdfd2022b8845ad8f792aa5825) >> 128 */\n      tag_63\n      jumpi\n        /* \"libraries/TickMath.sol\":2832:2835  128 */\n      0x80\n        /* \"libraries/TickMath.sol\":2793:2827  0xd097f3bdfd2022b8845ad8f792aa5825 */\n      0xd097f3bdfd2022b8845ad8f792aa5825\n        /* \"libraries/TickMath.sol\":2785:2790  ratio */\n      dup3\n        /* \"libraries/TickMath.sol\":2785:2827  ratio * 0xd097f3bdfd2022b8845ad8f792aa5825 */\n      mul\n        /* \"libraries/TickMath.sol\":2784:2835  (ratio * 0xd097f3bdfd2022b8845ad8f792aa5825) >> 128 */\n      swap1\n      shr\n        /* \"libraries/TickMath.sol\":2776:2835  ratio = (ratio * 0xd097f3bdfd2022b8845ad8f792aa5825) >> 128 */\n      swap1\n      pop\n        /* \"libraries/TickMath.sol\":2749:2835  if (absTick & 0x1000 != 0) ratio = (ratio * 0xd097f3bdfd2022b8845ad8f792aa5825) >> 128 */\n    tag_63:\n        /* \"libraries/TickMath.sol\":2869:2870  0 */\n      0x00\n        /* \"libraries/TickMath.sol\":2859:2865  0x2000 */\n      0x2000\n        /* \"libraries/TickMath.sol\":2849:2856  absTick */\n      dup4\n        /* \"libraries/TickMath.sol\":2849:2865  absTick & 0x2000 */\n      and\n        /* \"libraries/TickMath.sol\":2849:2870  absTick & 0x2000 != 0 */\n      eq\n        /* \"libraries/TickMath.sol\":2845:2931  if (absTick & 0x2000 != 0) ratio = (ratio * 0xa9f746462d870fdf8a65dc1f90e061e5) >> 128 */\n      tag_64\n      jumpi\n        /* \"libraries/TickMath.sol\":2928:2931  128 */\n      0x80\n        /* \"libraries/TickMath.sol\":2889:2923  0xa9f746462d870fdf8a65dc1f90e061e5 */\n      0xa9f746462d870fdf8a65dc1f90e061e5\n        /* \"libraries/TickMath.sol\":2881:2886  ratio */\n      dup3\n        /* \"libraries/TickMath.sol\":2881:2923  ratio * 0xa9f746462d870fdf8a65dc1f90e061e5 */\n      mul\n        /* \"libraries/TickMath.sol\":2880:2931  (ratio * 0xa9f746462d870fdf8a65dc1f90e061e5) >> 128 */\n      swap1\n      shr\n        /* \"libraries/TickMath.sol\":2872:2931  ratio = (ratio * 0xa9f746462d870fdf8a65dc1f90e061e5) >> 128 */\n      swap1\n      pop\n        /* \"libraries/TickMath.sol\":2845:2931  if (absTick & 0x2000 != 0) ratio = (ratio * 0xa9f746462d870fdf8a65dc1f90e061e5) >> 128 */\n    tag_64:\n        /* \"libraries/TickMath.sol\":2965:2966  0 */\n      0x00\n        /* \"libraries/TickMath.sol\":2955:2961  0x4000 */\n      0x4000\n        /* \"libraries/TickMath.sol\":2945:2952  absTick */\n      dup4\n        /* \"libraries/TickMath.sol\":2945:2961  absTick & 0x4000 */\n      and\n        /* \"libraries/TickMath.sol\":2945:2966  absTick & 0x4000 != 0 */\n      eq\n        /* \"libraries/TickMath.sol\":2941:3027  if (absTick & 0x4000 != 0) ratio = (ratio * 0x70d869a156d2a1b890bb3df62baf32f7) >> 128 */\n      tag_65\n      jumpi\n        /* \"libraries/TickMath.sol\":3024:3027  128 */\n      0x80\n        /* \"libraries/TickMath.sol\":2985:3019  0x70d869a156d2a1b890bb3df62baf32f7 */\n      0x70d869a156d2a1b890bb3df62baf32f7\n        /* \"libraries/TickMath.sol\":2977:2982  ratio */\n      dup3\n        /* \"libraries/TickMath.sol\":2977:3019  ratio * 0x70d869a156d2a1b890bb3df62baf32f7 */\n      mul\n        /* \"libraries/TickMath.sol\":2976:3027  (ratio * 0x70d869a156d2a1b890bb3df62baf32f7) >> 128 */\n      swap1\n      shr\n        /* \"libraries/TickMath.sol\":2968:3027  ratio = (ratio * 0x70d869a156d2a1b890bb3df62baf32f7) >> 128 */\n      swap1\n      pop\n        /* \"libraries/TickMath.sol\":2941:3027  if (absTick & 0x4000 != 0) ratio = (ratio * 0x70d869a156d2a1b890bb3df62baf32f7) >> 128 */\n    tag_65:\n        /* \"libraries/TickMath.sol\":3061:3062  0 */\n      0x00\n        /* \"libraries/TickMath.sol\":3051:3057  0x8000 */\n      0x8000\n        /* \"libraries/TickMath.sol\":3041:3048  absTick */\n      dup4\n        /* \"libraries/TickMath.sol\":3041:3057  absTick & 0x8000 */\n      and\n        /* \"libraries/TickMath.sol\":3041:3062  absTick & 0x8000 != 0 */\n      eq\n        /* \"libraries/TickMath.sol\":3037:3123  if (absTick & 0x8000 != 0) ratio = (ratio * 0x31be135f97d08fd981231505542fcfa6) >> 128 */\n      tag_66\n      jumpi\n        /* \"libraries/TickMath.sol\":3120:3123  128 */\n      0x80\n        /* \"libraries/TickMath.sol\":3081:3115  0x31be135f97d08fd981231505542fcfa6 */\n      0x31be135f97d08fd981231505542fcfa6\n        /* \"libraries/TickMath.sol\":3073:3078  ratio */\n      dup3\n        /* \"libraries/TickMath.sol\":3073:3115  ratio * 0x31be135f97d08fd981231505542fcfa6 */\n      mul\n        /* \"libraries/TickMath.sol\":3072:3123  (ratio * 0x31be135f97d08fd981231505542fcfa6) >> 128 */\n      swap1\n      shr\n        /* \"libraries/TickMath.sol\":3064:3123  ratio = (ratio * 0x31be135f97d08fd981231505542fcfa6) >> 128 */\n      swap1\n      pop\n        /* \"libraries/TickMath.sol\":3037:3123  if (absTick & 0x8000 != 0) ratio = (ratio * 0x31be135f97d08fd981231505542fcfa6) >> 128 */\n    tag_66:\n        /* \"libraries/TickMath.sol\":3158:3159  0 */\n      0x00\n        /* \"libraries/TickMath.sol\":3147:3154  0x10000 */\n      0x010000\n        /* \"libraries/TickMath.sol\":3137:3144  absTick */\n      dup4\n        /* \"libraries/TickMath.sol\":3137:3154  absTick & 0x10000 */\n      and\n        /* \"libraries/TickMath.sol\":3137:3159  absTick & 0x10000 != 0 */\n      eq\n        /* \"libraries/TickMath.sol\":3133:3219  if (absTick & 0x10000 != 0) ratio = (ratio * 0x9aa508b5b7a84e1c677de54f3e99bc9) >> 128 */\n      tag_67\n      jumpi\n        /* \"libraries/TickMath.sol\":3216:3219  128 */\n      0x80\n        /* \"libraries/TickMath.sol\":3178:3211  0x9aa508b5b7a84e1c677de54f3e99bc9 */\n      0x09aa508b5b7a84e1c677de54f3e99bc9\n        /* \"libraries/TickMath.sol\":3170:3175  ratio */\n      dup3\n        /* \"libraries/TickMath.sol\":3170:3211  ratio * 0x9aa508b5b7a84e1c677de54f3e99bc9 */\n      mul\n        /* \"libraries/TickMath.sol\":3169:3219  (ratio * 0x9aa508b5b7a84e1c677de54f3e99bc9) >> 128 */\n      swap1\n      shr\n        /* \"libraries/TickMath.sol\":3161:3219  ratio = (ratio * 0x9aa508b5b7a84e1c677de54f3e99bc9) >> 128 */\n      swap1\n      pop\n        /* \"libraries/TickMath.sol\":3133:3219  if (absTick & 0x10000 != 0) ratio = (ratio * 0x9aa508b5b7a84e1c677de54f3e99bc9) >> 128 */\n    tag_67:\n        /* \"libraries/TickMath.sol\":3254:3255  0 */\n      0x00\n        /* \"libraries/TickMath.sol\":3243:3250  0x20000 */\n      0x020000\n        /* \"libraries/TickMath.sol\":3233:3240  absTick */\n      dup4\n        /* \"libraries/TickMath.sol\":3233:3250  absTick & 0x20000 */\n      and\n        /* \"libraries/TickMath.sol\":3233:3255  absTick & 0x20000 != 0 */\n      eq\n        /* \"libraries/TickMath.sol\":3229:3314  if (absTick & 0x20000 != 0) ratio = (ratio * 0x5d6af8dedb81196699c329225ee604) >> 128 */\n      tag_68\n      jumpi\n        /* \"libraries/TickMath.sol\":3311:3314  128 */\n      0x80\n        /* \"libraries/TickMath.sol\":3274:3306  0x5d6af8dedb81196699c329225ee604 */\n      0x5d6af8dedb81196699c329225ee604\n        /* \"libraries/TickMath.sol\":3266:3271  ratio */\n      dup3\n        /* \"libraries/TickMath.sol\":3266:3306  ratio * 0x5d6af8dedb81196699c329225ee604 */\n      mul\n        /* \"libraries/TickMath.sol\":3265:3314  (ratio * 0x5d6af8dedb81196699c329225ee604) >> 128 */\n      swap1\n      shr\n        /* \"libraries/TickMath.sol\":3257:3314  ratio = (ratio * 0x5d6af8dedb81196699c329225ee604) >> 128 */\n      swap1\n      pop\n        /* \"libraries/TickMath.sol\":3229:3314  if (absTick & 0x20000 != 0) ratio = (ratio * 0x5d6af8dedb81196699c329225ee604) >> 128 */\n    tag_68:\n        /* \"libraries/TickMath.sol\":3349:3350  0 */\n      0x00\n        /* \"libraries/TickMath.sol\":3338:3345  0x40000 */\n      0x040000\n        /* \"libraries/TickMath.sol\":3328:3335  absTick */\n      dup4\n        /* \"libraries/TickMath.sol\":3328:3345  absTick & 0x40000 */\n      and\n        /* \"libraries/TickMath.sol\":3328:3350  absTick & 0x40000 != 0 */\n      eq\n        /* \"libraries/TickMath.sol\":3324:3407  if (absTick & 0x40000 != 0) ratio = (ratio * 0x2216e584f5fa1ea926041bedfe98) >> 128 */\n      tag_69\n      jumpi\n        /* \"libraries/TickMath.sol\":3404:3407  128 */\n      0x80\n        /* \"libraries/TickMath.sol\":3369:3399  0x2216e584f5fa1ea926041bedfe98 */\n      0x2216e584f5fa1ea926041bedfe98\n        /* \"libraries/TickMath.sol\":3361:3366  ratio */\n      dup3\n        /* \"libraries/TickMath.sol\":3361:3399  ratio * 0x2216e584f5fa1ea926041bedfe98 */\n      mul\n        /* \"libraries/TickMath.sol\":3360:3407  (ratio * 0x2216e584f5fa1ea926041bedfe98) >> 128 */\n      swap1\n      shr\n        /* \"libraries/TickMath.sol\":3352:3407  ratio = (ratio * 0x2216e584f5fa1ea926041bedfe98) >> 128 */\n      swap1\n      pop\n        /* \"libraries/TickMath.sol\":3324:3407  if (absTick & 0x40000 != 0) ratio = (ratio * 0x2216e584f5fa1ea926041bedfe98) >> 128 */\n    tag_69:\n        /* \"libraries/TickMath.sol\":3442:3443  0 */\n      0x00\n        /* \"libraries/TickMath.sol\":3431:3438  0x80000 */\n      0x080000\n        /* \"libraries/TickMath.sol\":3421:3428  absTick */\n      dup4\n        /* \"libraries/TickMath.sol\":3421:3438  absTick & 0x80000 */\n      and\n        /* \"libraries/TickMath.sol\":3421:3443  absTick & 0x80000 != 0 */\n      eq\n        /* \"libraries/TickMath.sol\":3417:3495  if (absTick & 0x80000 != 0) ratio = (ratio * 0x48a170391f7dc42444e8fa2) >> 128 */\n      tag_70\n      jumpi\n        /* \"libraries/TickMath.sol\":3492:3495  128 */\n      0x80\n        /* \"libraries/TickMath.sol\":3462:3487  0x48a170391f7dc42444e8fa2 */\n      0x048a170391f7dc42444e8fa2\n        /* \"libraries/TickMath.sol\":3454:3459  ratio */\n      dup3\n        /* \"libraries/TickMath.sol\":3454:3487  ratio * 0x48a170391f7dc42444e8fa2 */\n      mul\n        /* \"libraries/TickMath.sol\":3453:3495  (ratio * 0x48a170391f7dc42444e8fa2) >> 128 */\n      swap1\n      shr\n        /* \"libraries/TickMath.sol\":3445:3495  ratio = (ratio * 0x48a170391f7dc42444e8fa2) >> 128 */\n      swap1\n      pop\n        /* \"libraries/TickMath.sol\":3417:3495  if (absTick & 0x80000 != 0) ratio = (ratio * 0x48a170391f7dc42444e8fa2) >> 128 */\n    tag_70:\n        /* \"libraries/TickMath.sol\":3517:3518  0 */\n      0x00\n        /* \"libraries/TickMath.sol\":3510:3514  tick */\n      dup5\n        /* \"libraries/TickMath.sol\":3510:3518  tick > 0 */\n      0x02\n      signextend\n      sgt\n        /* \"libraries/TickMath.sol\":3506:3553  if (tick > 0) ratio = type(uint256).max / ratio */\n      iszero\n      tag_71\n      jumpi\n        /* \"libraries/TickMath.sol\":3548:3553  ratio */\n      dup1\n        /* \"libraries/TickMath.sol\":3528:3545  type(uint256).max */\n      0xffffffffffffffffffffffffffffffffffffffffffffffffffffffffffffffff\n        /* \"libraries/TickMath.sol\":3528:3553  type(uint256).max / ratio */\n      dup2\n      tag_72\n      jumpi\n      invalid\n    tag_72:\n      div\n        /* \"libraries/TickMath.sol\":3520:3553  ratio = type(uint256).max / ratio */\n      swap1\n      pop\n        /* \"libraries/TickMath.sol\":3506:3553  if (tick > 0) ratio = type(uint256).max / ratio */\n    tag_71:\n        /* \"libraries/TickMath.sol\":3924:3925  0 */\n      0x00\n        /* \"libraries/TickMath.sol\":3912:3919  1 << 32 */\n      0x0100000000\n        /* \"libraries/TickMath.sol\":3903:3908  ratio */\n      dup3\n        /* \"libraries/TickMath.sol\":3903:3920  ratio % (1 << 32) */\n      dup2\n      tag_73\n      jumpi\n      invalid\n    tag_73:\n      mod\n        /* \"libraries/TickMath.sol\":3903:3925  ratio % (1 << 32) == 0 */\n      eq\n        /* \"libraries/TickMath.sol\":3903:3933  ratio % (1 << 32) == 0 ? 0 : 1 */\n      tag_74\n      jumpi\n        /* \"libraries/TickMath.sol\":3932:3933  1 */\n      0x01\n        /* \"libraries/TickMath.sol\":3903:3933  ratio % (1 << 32) == 0 ? 0 : 1 */\n      jump(tag_75)\n    tag_74:\n        /* \"libraries/TickMath.sol\":3928:3929  0 */\n      0x00\n        /* \"libraries/TickMath.sol\":3903:3933  ratio % (1 << 32) == 0 ? 0 : 1 */\n    tag_75:\n        /* \"libraries/TickMath.sol\":3886:3934  (ratio >> 32) + (ratio % (1 << 32) == 0 ? 0 : 1) */\n      0xff\n      and\n        /* \"libraries/TickMath.sol\":3896:3898  32 */\n      0x20\n        /* \"libraries/TickMath.sol\":3887:3892  ratio */\n      dup3\n        /* \"libraries/TickMath.sol\":3887:3898  ratio >> 32 */\n      swap1\n      shr\n        /* \"libraries/TickMath.sol\":3886:3934  (ratio >> 32) + (ratio % (1 << 32) == 0 ? 0 : 1) */\n      add\n        /* \"libraries/TickMath.sol\":3863:3935  sqrtPriceX96 = uint160((ratio >> 32) + (ratio % (1 << 32) == 0 ? 0 : 1)) */\n      swap3\n      pop\n        /* \"libraries/TickMath.sol\":1362:3942  function getSqrtRatioAtTick(int24 tick) internal pure returns (uint160 sqrtPriceX96) {... */\n      pop\n      pop\n      swap2\n      swap1\n      pop\n      jump\t// out\n        /* \"libraries/FullMath.sol\":749:4495  function mulDiv(uint256 a, uint256 b, uint256 denominator) internal pure returns (uint256 result) {... */\n    tag_38:\n        /* \"libraries/FullMath.sol\":831:845  uint256 result */\n      0x00\n        /* \"libraries/FullMath.sol\":1160:1173  uint256 prod0 */\n      dup1\n        /* \"libraries/FullMath.sol\":1228:1241  uint256 prod1 */\n      0x00\n        /* \"libraries/FullMath.sol\":1345:1346  0 */\n      dup1\n        /* \"libraries/FullMath.sol\":1341:1347  not(0) */\n      not\n        /* \"libraries/FullMath.sol\":1338:1339  b */\n      dup6\n        /* \"libraries/FullMath.sol\":1335:1336  a */\n      dup8\n        /* \"libraries/FullMath.sol\":1328:1348  mulmod(a, b, not(0)) */\n      mulmod\n        /* \"libraries/FullMath.sol\":1377:1378  b */\n      dup6\n        /* \"libraries/FullMath.sol\":1374:1375  a */\n      dup8\n        /* \"libraries/FullMath.sol\":1370:1379  mul(a, b) */\n      mul\n        /* \"libraries/FullMath.sol\":1361:1379  prod0 := mul(a, b) */\n      swap3\n      pop\n        /* \"libraries/FullMath.sol\":1428:1433  prod0 */\n      dup3\n        /* \"libraries/FullMath.sol\":1424:1426  mm */\n      dup2\n        /* \"libraries/FullMath.sol\":1421:1434  lt(mm, prod0) */\n      lt\n        /* \"libraries/FullMath.sol\":1413:1418  prod0 */\n      dup4\n        /* \"libraries/FullMath.sol\":1409:1411  mm */\n      dup3\n        /* \"libraries/FullMath.sol\":1405:1419  sub(mm, prod0) */\n      sub\n        /* \"libraries/FullMath.sol\":1401:1435  sub(sub(mm, prod0), lt(mm, prod0)) */\n      sub\n        /* \"libraries/FullMath.sol\":1392:1435  prod1 := sub(sub(mm, prod0), lt(mm, prod0)) */\n      swap2\n      pop\n        /* \"libraries/FullMath.sol\":1304:1445  {... */\n      pop\n        /* \"libraries/FullMath.sol\":1526:1527  0 */\n      0x00\n        /* \"libraries/FullMath.sol\":1517:1522  prod1 */\n      dup2\n        /* \"libraries/FullMath.sol\":1517:1527  prod1 == 0 */\n      eq\n        /* \"libraries/FullMath.sol\":1513:1692  if (prod1 == 0) {... */\n      iszero\n      tag_77\n      jumpi\n        /* \"libraries/FullMath.sol\":1565:1566  0 */\n      0x00\n        /* \"libraries/FullMath.sol\":1551:1562  denominator */\n      dup5\n        /* \"libraries/FullMath.sol\":1551:1566  denominator > 0 */\n      gt\n        /* \"libraries/FullMath.sol\":1543:1567  require(denominator > 0) */\n      tag_78\n      jumpi\n      0x00\n      dup1\n      revert\n    tag_78:\n        /* \"libraries/FullMath.sol\":1629:1640  denominator */\n      dup4\n        /* \"libraries/FullMath.sol\":1622:1627  prod0 */\n      dup3\n        /* \"libraries/FullMath.sol\":1618:1641  div(prod0, denominator) */\n      div\n        /* \"libraries/FullMath.sol\":1608:1641  result := div(prod0, denominator) */\n      swap3\n      pop\n        /* \"libraries/FullMath.sol\":1668:1681  return result */\n      pop\n      pop\n      jump(tag_76)\n        /* \"libraries/FullMath.sol\":1513:1692  if (prod1 == 0) {... */\n    tag_77:\n        /* \"libraries/FullMath.sol\":1819:1824  prod1 */\n      dup1\n        /* \"libraries/FullMath.sol\":1805:1816  denominator */\n      dup5\n        /* \"libraries/FullMath.sol\":1805:1824  denominator > prod1 */\n      gt\n        /* \"libraries/FullMath.sol\":1797:1825  require(denominator > prod1) */\n      tag_79\n      jumpi\n      0x00\n      dup1\n      revert\n    tag_79:\n        /* \"libraries/FullMath.sol\":2102:2119  uint256 remainder */\n      0x00\n        /* \"libraries/FullMath.sol\":2178:2189  denominator */\n      dup5\n        /* \"libraries/FullMath.sol\":2175:2176  b */\n      dup7\n        /* \"libraries/FullMath.sol\":2172:2173  a */\n      dup9\n        /* \"libraries/FullMath.sol\":2165:2190  mulmod(a, b, denominator) */\n      mulmod\n        /* \"libraries/FullMath.sol\":2152:2190  remainder := mulmod(a, b, denominator) */\n      swap1\n      pop\n        /* \"libraries/FullMath.sol\":2321:2326  prod0 */\n      dup3\n        /* \"libraries/FullMath.sol\":2310:2319  remainder */\n      dup2\n        /* \"libraries/FullMath.sol\":2307:2327  gt(remainder, prod0) */\n      gt\n        /* \"libraries/FullMath.sol\":2300:2305  prod1 */\n      dup3\n        /* \"libraries/FullMath.sol\":2296:2328  sub(prod1, gt(remainder, prod0)) */\n      sub\n        /* \"libraries/FullMath.sol\":2287:2328  prod1 := sub(prod1, gt(remainder, prod0)) */\n      swap2\n      pop\n        /* \"libraries/FullMath.sol\":2361:2370  remainder */\n      dup1\n        /* \"libraries/FullMath.sol\":2354:2359  prod0 */\n      dup4\n        /* \"libraries/FullMath.sol\":2350:2371  sub(prod0, remainder) */\n      sub\n        /* \"libraries/FullMath.sol\":2341:2371  prod0 := sub(prod0, remainder) */\n      swap3\n      pop\n        /* \"libraries/FullMath.sol\":2530:2542  uint256 twos */\n      0x00\n        /* \"libraries/FullMath.sol\":2560:2571  denominator */\n      dup6\n        /* \"libraries/FullMath.sol\":2546:2557  denominator */\n      dup7\n        /* \"libraries/FullMath.sol\":2545:2557  -denominator */\n      0x00\n      sub\n        /* \"libraries/FullMath.sol\":2545:2571  -denominator & denominator */\n      and\n        /* \"libraries/FullMath.sol\":2530:2571  uint256 twos = -denominator & denominator */\n      swap1\n      pop\n        /* \"libraries/FullMath.sol\":2682:2686  twos */\n      dup1\n        /* \"libraries/FullMath.sol\":2669:2680  denominator */\n      dup7\n        /* \"libraries/FullMath.sol\":2665:2687  div(denominator, twos) */\n      div\n        /* \"libraries/FullMath.sol\":2650:2687  denominator := div(denominator, twos) */\n      swap6\n      pop\n        /* \"libraries/FullMath.sol\":2804:2808  twos */\n      dup1\n        /* \"libraries/FullMath.sol\":2797:2802  prod0 */\n      dup5\n        /* \"libraries/FullMath.sol\":2793:2809  div(prod0, twos) */\n      div\n        /* \"libraries/FullMath.sol\":2784:2809  prod0 := div(prod0, twos) */\n      swap4\n      pop\n        /* \"libraries/FullMath.sol\":3058:3059  1 */\n      0x01\n        /* \"libraries/FullMath.sol\":3051:3055  twos */\n      dup2\n        /* \"libraries/FullMath.sol\":3044:3048  twos */\n      dup3\n        /* \"libraries/FullMath.sol\":3041:3042  0 */\n      0x00\n        /* \"libraries/FullMath.sol\":3037:3049  sub(0, twos) */\n      sub\n        /* \"libraries/FullMath.sol\":3033:3056  div(sub(0, twos), twos) */\n      div\n        /* \"libraries/FullMath.sol\":3029:3060  add(div(sub(0, twos), twos), 1) */\n      add\n        /* \"libraries/FullMath.sol\":3021:3060  twos := add(div(sub(0, twos), twos), 1) */\n      swap1\n      pop\n        /* \"libraries/FullMath.sol\":3096:3100  twos */\n      dup1\n        /* \"libraries/FullMath.sol\":3088:3093  prod1 */\n      dup4\n        /* \"libraries/FullMath.sol\":3088:3100  prod1 * twos */\n      mul\n        /* \"libraries/FullMath.sol\":3079:3100  prod0 |= prod1 * twos */\n      dup5\n      or\n      swap4\n      pop\n        /* \"libraries/FullMath.sol\":3434:3445  uint256 inv */\n      0x00\n        /* \"libraries/FullMath.sol\":3468:3469  2 */\n      0x02\n        /* \"libraries/FullMath.sol\":3453:3464  denominator */\n      dup8\n        /* \"libraries/FullMath.sol\":3449:3450  3 */\n      0x03\n        /* \"libraries/FullMath.sol\":3449:3464  3 * denominator */\n      mul\n        /* \"libraries/FullMath.sol\":3448:3469  (3 * denominator) ^ 2 */\n      xor\n        /* \"libraries/FullMath.sol\":3434:3469  uint256 inv = (3 * denominator) ^ 2 */\n      swap1\n      pop\n        /* \"libraries/FullMath.sol\":3709:3712  inv */\n      dup1\n        /* \"libraries/FullMath.sol\":3695:3706  denominator */\n      dup8\n        /* \"libraries/FullMath.sol\":3695:3712  denominator * inv */\n      mul\n        /* \"libraries/FullMath.sol\":3691:3692  2 */\n      0x02\n        /* \"libraries/FullMath.sol\":3691:3712  2 - denominator * inv */\n      sub\n        /* \"libraries/FullMath.sol\":3684:3712  inv *= 2 - denominator * inv */\n      dup2\n      mul\n      swap1\n      pop\n        /* \"libraries/FullMath.sol\":3767:3770  inv */\n      dup1\n        /* \"libraries/FullMath.sol\":3753:3764  denominator */\n      dup8\n        /* \"libraries/FullMath.sol\":3753:3770  denominator * inv */\n      mul\n        /* \"libraries/FullMath.sol\":3749:3750  2 */\n      0x02\n        /* \"libraries/FullMath.sol\":3749:3770  2 - denominator * inv */\n      sub\n        /* \"libraries/FullMath.sol\":3742:3770  inv *= 2 - denominator * inv */\n      dup2\n      mul\n      swap1\n      pop\n        /* \"libraries/FullMath.sol\":3826:3829  inv */\n      dup1\n        /* \"libraries/FullMath.sol\":3812:3823  denominator */\n      dup8\n        /* \"libraries/FullMath.sol\":3812:3829  denominator * inv */\n      mul\n        /* \"libraries/FullMath.sol\":3808:3809  2 */\n      0x02\n        /* \"libraries/FullMath.sol\":3808:3829  2 - denominator * inv */\n      sub\n        /* \"libraries/FullMath.sol\":3801:3829  inv *= 2 - denominator * inv */\n      dup2\n      mul\n      swap1\n      pop\n        /* \"libraries/FullMath.sol\":3885:3888  inv */\n      dup1\n        /* \"libraries/FullMath.sol\":3871:3882  denominator */\n      dup8\n        /* \"libraries/FullMath.sol\":3871:3888  denominator * inv */\n      mul\n        /* \"libraries/FullMath.sol\":3867:3868  2 */\n      0x02\n        /* \"libraries/FullMath.sol\":3867:3888  2 - denominator * inv */\n      sub\n        /* \"libraries/FullMath.sol\":3860:3888  inv *= 2 - denominator * inv */\n      dup2\n      mul\n      swap1\n      pop\n        /* \"libraries/FullMath.sol\":3944:3947  inv */\n      dup1\n        /* \"libraries/FullMath.sol\":3930:3941  denominator */\n      dup8\n        /* \"libraries/FullMath.sol\":3930:3947  denominator * inv */\n      mul\n        /* \"libraries/FullMath.sol\":3926:3927  2 */\n      0x02\n        /* \"libraries/FullMath.sol\":3926:3947  2 - denominator * inv */\n      sub\n        /* \"libraries/FullMath.sol\":3919:3947  inv *= 2 - denominator * inv */\n      dup2\n      mul\n      swap1\n      pop\n        /* \"libraries/FullMath.sol\":4004:4007  inv */\n      dup1\n        /* \"libraries/FullMath.sol\":3990:4001  denominator */\n      dup8\n        /* \"libraries/FullMath.sol\":3990:4007  denominator * inv */\n      mul\n        /* \"libraries/FullMath.sol\":3986:3987  2 */\n      0x02\n        /* \"libraries/FullMath.sol\":3986:4007  2 - denominator * inv */\n      sub\n        /* \"libraries/FullMath.sol\":3979:4007  inv *= 2 - denominator * inv */\n      dup2\n      mul\n      swap1\n      pop\n        /* \"libraries/FullMath.sol\":4462:4465  inv */\n      dup1\n        /* \"libraries/FullMath.sol\":4454:4459  prod0 */\n      dup6\n        /* \"libraries/FullMath.sol\":4454:4465  prod0 * inv */\n      mul\n        /* \"libraries/FullMath.sol\":4445:4465  result = prod0 * inv */\n      swap6\n      pop\n        /* \"libraries/FullMath.sol\":4475:4488  return result */\n      pop\n      pop\n      pop\n      pop\n      pop\n        /* \"libraries/FullMath.sol\":749:4495  function mulDiv(uint256 a, uint256 b, uint256 denominator) internal pure returns (uint256 result) {... */\n    tag_76:\n      swap4\n      swap3\n      pop\n      pop\n      pop\n      jump\t// out\n\n    auxdata: 0xa2646970667358221220723a07056526188cf90cd691c56061aa8675b0550e993956834dbb38aed4413464736f6c63430007060033\n}\n",
				"bytecode": {
					"linkReferences": {},
					"object": "608060405234801561001057600080fd5b50610b99806100206000396000f3fe608060405234801561001057600080fd5b50600436106100365760003560e01c806311ea54411461003b57806341976e091461006f575b600080fd5b6100436100c7565b604051808273ffffffffffffffffffffffffffffffffffffffff16815260200191505060405180910390f35b6100b16004803603602081101561008557600080fd5b81019080803573ffffffffffffffffffffffffffffffffffffffff1690602001909291905050506100eb565b6040518082815260200191505060405180910390f35b60008054906101000a900473ffffffffffffffffffffffffffffffffffffffff1681565b60008073ffffffffffffffffffffffffffffffffffffffff168273ffffffffffffffffffffffffffffffffffffffff16141561018f576040517f08c379a00000000000000000000000000000000000000000000000000000000081526004018080602001828103825260148152602001807f496e76616c696420706f6f6c206164647265737300000000000000000000000081525060200191505060405180910390fd5b60008273ffffffffffffffffffffffffffffffffffffffff16630dfe16816040518163ffffffff1660e01b815260040160206040518083038186803b1580156101d757600080fd5b505afa1580156101eb573d6000803e3d6000fd5b505050506040513d602081101561020157600080fd5b8101908080519060200190929190505050905060008373ffffffffffffffffffffffffffffffffffffffff1663d21220a76040518163ffffffff1660e01b815260040160206040518083038186803b15801561025c57600080fd5b505afa158015610270573d6000803e3d6000fd5b505050506040513d602081101561028657600080fd5b81019080805190602001909291905050509050600073ffffffffffffffffffffffffffffffffffffffff168273ffffffffffffffffffffffffffffffffffffffff16141580156103035750600073ffffffffffffffffffffffffffffffffffffffff168173ffffffffffffffffffffffffffffffffffffffff1614155b610375576040517f08c379a000000000000000000000000000000000000000000000000000000000815260040180806020018281038252600e8152602001807f496e76616c696420746f6b656e7300000000000000000000000000000000000081525060200191505060405180910390fd5b60008273ffffffffffffffffffffffffffffffffffffffff1663313ce5676040518163ffffffff1660e01b815260040160206040518083038186803b1580156103bd57600080fd5b505afa1580156103d1573d6000803e3d6000fd5b505050506040513d60208110156103e757600080fd5b8101908080519060200190929190505050905060008273ffffffffffffffffffffffffffffffffffffffff1663313ce5676040518163ffffffff1660e01b815260040160206040518083038186803b15801561044257600080fd5b505afa158015610456573d6000803e3d6000fd5b505050506040513d602081101561046c57600080fd5b8101908080519060200190929190505050905060008673ffffffffffffffffffffffffffffffffffffffff16633850c7bd6040518163ffffffff1660e01b815260040160c06040518083038186803b1580156104c757600080fd5b505afa1580156104db573d6000803e3d6000fd5b505050506040513d60c08110156104f157600080fd5b810190808051906020019092919080519060200190929190805190602001909291908051906020019092919080519060200190929190805190602001909291905050505050505091505060006105468261064e565b905060008173ffffffffffffffffffffffffffffffffffffffff1614156105765760009650505050505050610649565b60006105c88273ffffffffffffffffffffffffffffffffffffffff168373ffffffffffffffffffffffffffffffffffffffff167801000000000000000000000000000000000000000000000000610a89565b905060006105e082670de0b6b3a76400006001610a89565b905060008660ff168660ff16111561060e5786860360ff16600a0a905080828161060657fe5b04995061063f565b8560ff168760ff16111561063a5785870360ff16600a0a905061063382826001610a89565b995061063e565b8199505b5b5050505050505050505b919050565b60008060008360020b12610665578260020b61066d565b8260020b6000035b90507ffffffffffffffffffffffffffffffffffffffffffffffffffffffffffff2761860000360020b81111561070b576040517f08c379a00000000000000000000000000000000000000000000000000000000081526004018080602001828103825260018152602001807f540000000000000000000000000000000000000000000000000000000000000081525060200191505060405180910390fd5b60008060018316141561072f57700100000000000000000000000000000000610741565b6ffffcb933bd6fad37aa2d162d1a5940015b70ffffffffffffffffffffffffffffffffff1690506000600283161461077b5760806ffff97272373d413259a46990580e213a8202901c90505b600060048316146107a05760806ffff2e50f5f656932ef12357cf3c7fdcc8202901c90505b600060088316146107c55760806fffe5caca7e10e4e61c3624eaa0941cd08202901c90505b600060108316146107ea5760806fffcb9843d60f6159c9db58835c9266448202901c90505b6000602083161461080f5760806fff973b41fa98c081472e6896dfb254c08202901c90505b600060408316146108345760806fff2ea16466c96a3843ec78b326b528618202901c90505b600060808316146108595760806ffe5dee046a99a2a811c461f1969c30538202901c90505b600061010083161461087f5760806ffcbe86c7900a88aedcffc83b479aa3a48202901c90505b60006102008316146108a55760806ff987a7253ac413176f2b074cf7815e548202901c90505b60006104008316146108cb5760806ff3392b0822b70005940c7a398e4b70f38202901c90505b60006108008316146108f15760806fe7159475a2c29b7443b29c7fa6e889d98202901c90505b60006110008316146109175760806fd097f3bdfd2022b8845ad8f792aa58258202901c90505b600061200083161461093d5760806fa9f746462d870fdf8a65dc1f90e061e58202901c90505b60006140008316146109635760806f70d869a156d2a1b890bb3df62baf32f78202901c90505b60006180008316146109895760806f31be135f97d08fd981231505542fcfa68202901c90505b6000620100008316146109b05760806f09aa508b5b7a84e1c677de54f3e99bc98202901c90505b6000620200008316146109d65760806e5d6af8dedb81196699c329225ee6048202901c90505b6000620400008316146109fb5760806d2216e584f5fa1ea926041bedfe988202901c90505b600062080000831614610a1e5760806b048a170391f7dc42444e8fa28202901c90505b60008460020b1315610a5757807fffffffffffffffffffffffffffffffffffffffffffffffffffffffffffffffff81610a5357fe5b0490505b60006401000000008281610a6757fe5b0614610a74576001610a77565b60005b60ff16602082901c0192505050919050565b600080600080198587098587029250828110838203039150506000811415610ac45760008411610ab857600080fd5b83820492505050610b5c565b808411610ad057600080fd5b600084868809905082811182039150808303925060008586600003169050808604955080840493506001818260000304019050808302841793506000600287600302189050808702600203810290508087026002038102905080870260020381029050808702600203810290508087026002038102905080870260020381029050808502955050505050505b939250505056fea2646970667358221220723a07056526188cf90cd691c56061aa8675b0550e993956834dbb38aed4413464736f6c63430007060033",
					"opcodes": "PUSH1 0x80 PUSH1 0x40 MSTORE CALLVALUE DUP1 ISZERO PUSH2 0x10 JUMPI PUSH1 0x0 DUP1 REVERT JUMPDEST POP PUSH2 0xB99 DUP1 PUSH2 0x20 PUSH1 0x0 CODECOPY PUSH1 0x0 RETURN INVALID PUSH1 0x80 PUSH1 0x40 MSTORE CALLVALUE DUP1 ISZERO PUSH2 0x10 JUMPI PUSH1 0x0 DUP1 REVERT JUMPDEST POP PUSH1 0x4 CALLDATASIZE LT PUSH2 0x36 JUMPI PUSH1 0x0 CALLDATALOAD PUSH1 0xE0 SHR DUP1 PUSH4 0x11EA5441 EQ PUSH2 0x3B JUMPI DUP1 PUSH4 0x41976E09 EQ PUSH2 0x6F JUMPI JUMPDEST PUSH1 0x0 DUP1 REVERT JUMPDEST PUSH2 0x43 PUSH2 0xC7 JUMP JUMPDEST PUSH1 0x40 MLOAD DUP1 DUP3 PUSH20 0xFFFFFFFFFFFFFFFFFFFFFFFFFFFFFFFFFFFFFFFF AND DUP2 MSTORE PUSH1 0x20 ADD SWAP2 POP POP PUSH1 0x40 MLOAD DUP1 SWAP2 SUB SWAP1 RETURN JUMPDEST PUSH2 0xB1 PUSH1 0x4 DUP1 CALLDATASIZE SUB PUSH1 0x20 DUP2 LT ISZERO PUSH2 0x85 JUMPI PUSH1 0x0 DUP1 REVERT JUMPDEST DUP2 ADD SWAP1 DUP1 DUP1 CALLDATALOAD PUSH20 0xFFFFFFFFFFFFFFFFFFFFFFFFFFFFFFFFFFFFFFFF AND SWAP1 PUSH1 0x20 ADD SWAP1 SWAP3 SWAP2 SWAP1 POP POP POP PUSH2 0xEB JUMP JUMPDEST PUSH1 0x40 MLOAD DUP1 DUP3 DUP2 MSTORE PUSH1 0x20 ADD SWAP2 POP POP PUSH1 0x40 MLOAD DUP1 SWAP2 SUB SWAP1 RETURN JUMPDEST PUSH1 0x0 DUP1 SLOAD SWAP1 PUSH2 0x100 EXP SWAP1 DIV PUSH20 0xFFFFFFFFFFFFFFFFFFFFFFFFFFFFFFFFFFFFFFFF AND DUP2 JUMP JUMPDEST PUSH1 0x0 DUP1 PUSH20 0xFFFFFFFFFFFFFFFFFFFFFFFFFFFFFFFFFFFFFFFF AND DUP3 PUSH20 0xFFFFFFFFFFFFFFFFFFFFFFFFFFFFFFFFFFFFFFFF AND EQ ISZERO PUSH2 0x18F JUMPI PUSH1 0x40 MLOAD PUSH32 0x8C379A000000000000000000000000000000000000000000000000000000000 DUP2 MSTORE PUSH1 0x4 ADD DUP1 DUP1 PUSH1 0x20 ADD DUP3 DUP2 SUB DUP3 MSTORE PUSH1 0x14 DUP2 MSTORE PUSH1 0x20 ADD DUP1 PUSH32 0x496E76616C696420706F6F6C2061646472657373000000000000000000000000 DUP2 MSTORE POP PUSH1 0x20 ADD SWAP2 POP POP PUSH1 0x40 MLOAD DUP1 SWAP2 SUB SWAP1 REVERT JUMPDEST PUSH1 0x0 DUP3 PUSH20 0xFFFFFFFFFFFFFFFFFFFFFFFFFFFFFFFFFFFFFFFF AND PUSH4 0xDFE1681 PUSH1 0x40 MLOAD DUP2 PUSH4 0xFFFFFFFF AND PUSH1 0xE0 SHL DUP2 MSTORE PUSH1 0x4 ADD PUSH1 0x20 PUSH1 0x40 MLOAD DUP1 DUP4 SUB DUP2 DUP7 DUP1 EXTCODESIZE ISZERO DUP1 ISZERO PUSH2 0x1D7 JUMPI PUSH1 0x0 DUP1 REVERT JUMPDEST POP GAS STATICCALL ISZERO DUP1 ISZERO PUSH2 0x1EB JUMPI RETURNDATASIZE PUSH1 0x0 DUP1 RETURNDATACOPY RETURNDATASIZE PUSH1 0x0 REVERT JUMPDEST POP POP POP POP PUSH1 0x40 MLOAD RETURNDATASIZE PUSH1 0x20 DUP2 LT ISZERO PUSH2 0x201 JUMPI PUSH1 0x0 DUP1 REVERT JUMPDEST DUP2 ADD SWAP1 DUP1 DUP1 MLOAD SWAP1 PUSH1 0x20 ADD SWAP1 SWAP3 SWAP2 SWAP1 POP POP POP SWAP1 POP PUSH1 0x0 DUP4 PUSH20 0xFFFFFFFFFFFFFFFFFFFFFFFFFFFFFFFFFFFFFFFF AND PUSH4 0xD21220A7 PUSH1 0x40 MLOAD DUP2 PUSH4 0xFFFFFFFF AND PUSH1 0xE0 SHL DUP2 MSTORE PUSH1 0x4 ADD PUSH1 0x20 PUSH1 0x40 MLOAD DUP1 DUP4 SUB DUP2 DUP7 DUP1 EXTCODESIZE ISZERO DUP1 ISZERO PUSH2 0x25C JUMPI PUSH1 0x0 DUP1 REVERT JUMPDEST POP GAS STATICCALL ISZERO DUP1 ISZERO PUSH2 0x270 JUMPI RETURNDATASIZE PUSH1 0x0 DUP1 RETURNDATACOPY RETURNDATASIZE PUSH1 0x0 REVERT JUMPDEST POP POP POP POP PUSH1 0x40 MLOAD RETURNDATASIZE PUSH1 0x20 DUP2 LT ISZERO PUSH2 0x286 JUMPI PUSH1 0x0 DUP1 REVERT JUMPDEST DUP2 ADD SWAP1 DUP1 DUP1 MLOAD SWAP1 PUSH1 0x20 ADD SWAP1 SWAP3 SWAP2 SWAP1 POP POP POP SWAP1 POP PUSH1 0x0 PUSH20 0xFFFFFFFFFFFFFFFFFFFFFFFFFFFFFFFFFFFFFFFF AND DUP3 PUSH20 0xFFFFFFFFFFFFFFFFFFFFFFFFFFFFFFFFFFFFFFFF AND EQ ISZERO DUP1 ISZERO PUSH2 0x303 JUMPI POP PUSH1 0x0 PUSH20 0xFFFFFFFFFFFFFFFFFFFFFFFFFFFFFFFFFFFFFFFF AND DUP2 PUSH20 0xFFFFFFFFFFFFFFFFFFFFFFFFFFFFFFFFFFFFFFFF AND EQ ISZERO JUMPDEST PUSH2 0x375 JUMPI PUSH1 0x40 MLOAD PUSH32 0x8C379A000000000000000000000000000000000000000000000000000000000 DUP2 MSTORE PUSH1 0x4 ADD DUP1 DUP1 PUSH1 0x20 ADD DUP3 DUP2 SUB DUP3 MSTORE PUSH1 0xE DUP2 MSTORE PUSH1 0x20 ADD DUP1 PUSH32 0x496E76616C696420746F6B656E73000000000000000000000000000000000000 DUP2 MSTORE POP PUSH1 0x20 ADD SWAP2 POP POP PUSH1 0x40 MLOAD DUP1 SWAP2 SUB SWAP1 REVERT JUMPDEST PUSH1 0x0 DUP3 PUSH20 0xFFFFFFFFFFFFFFFFFFFFFFFFFFFFFFFFFFFFFFFF AND PUSH4 0x313CE567 PUSH1 0x40 MLOAD DUP2 PUSH4 0xFFFFFFFF AND PUSH1 0xE0 SHL DUP2 MSTORE PUSH1 0x4 ADD PUSH1 0x20 PUSH1 0x40 MLOAD DUP1 DUP4 SUB DUP2 DUP7 DUP1 EXTCODESIZE ISZERO DUP1 ISZERO PUSH2 0x3BD JUMPI PUSH1 0x0 DUP1 REVERT JUMPDEST POP GAS STATICCALL ISZERO DUP1 ISZERO PUSH2 0x3D1 JUMPI RETURNDATASIZE PUSH1 0x0 DUP1 RETURNDATACOPY RETURNDATASIZE PUSH1 0x0 REVERT JUMPDEST POP POP POP POP PUSH1 0x40 MLOAD RETURNDATASIZE PUSH1 0x20 DUP2 LT ISZERO PUSH2 0x3E7 JUMPI PUSH1 0x0 DUP1 REVERT JUMPDEST DUP2 ADD SWAP1 DUP1 DUP1 MLOAD SWAP1 PUSH1 0x20 ADD SWAP1 SWAP3 SWAP2 SWAP1 POP POP POP SWAP1 POP PUSH1 0x0 DUP3 PUSH20 0xFFFFFFFFFFFFFFFFFFFFFFFFFFFFFFFFFFFFFFFF AND PUSH4 0x313CE567 PUSH1 0x40 MLOAD DUP2 PUSH4 0xFFFFFFFF AND PUSH1 0xE0 SHL DUP2 MSTORE PUSH1 0x4 ADD PUSH1 0x20 PUSH1 0x40 MLOAD DUP1 DUP4 SUB DUP2 DUP7 DUP1 EXTCODESIZE ISZERO DUP1 ISZERO PUSH2 0x442 JUMPI PUSH1 0x0 DUP1 REVERT JUMPDEST POP GAS STATICCALL ISZERO DUP1 ISZERO PUSH2 0x456 JUMPI RETURNDATASIZE PUSH1 0x0 DUP1 RETURNDATACOPY RETURNDATASIZE PUSH1 0x0 REVERT JUMPDEST POP POP POP POP PUSH1 0x40 MLOAD RETURNDATASIZE PUSH1 0x20 DUP2 LT ISZERO PUSH2 0x46C JUMPI PUSH1 0x0 DUP1 REVERT JUMPDEST DUP2 ADD SWAP1 DUP1 DUP1 MLOAD SWAP1 PUSH1 0x20 ADD SWAP1 SWAP3 SWAP2 SWAP1 POP POP POP SWAP1 POP PUSH1 0x0 DUP7 PUSH20 0xFFFFFFFFFFFFFFFFFFFFFFFFFFFFFFFFFFFFFFFF AND PUSH4 0x3850C7BD PUSH1 0x40 MLOAD DUP2 PUSH4 0xFFFFFFFF AND PUSH1 0xE0 SHL DUP2 MSTORE PUSH1 0x4 ADD PUSH1 0xC0 PUSH1 0x40 MLOAD DUP1 DUP4 SUB DUP2 DUP7 DUP1 EXTCODESIZE ISZERO DUP1 ISZERO PUSH2 0x4C7 JUMPI PUSH1 0x0 DUP1 REVERT JUMPDEST POP GAS STATICCALL ISZERO DUP1 ISZERO PUSH2 0x4DB JUMPI RETURNDATASIZE PUSH1 0x0 DUP1 RETURNDATACOPY RETURNDATASIZE PUSH1 0x0 REVERT JUMPDEST POP POP POP POP PUSH1 0x40 MLOAD RETURNDATASIZE PUSH1 0xC0 DUP2 LT ISZERO PUSH2 0x4F1 JUMPI PUSH1 0x0 DUP1 REVERT JUMPDEST DUP2 ADD SWAP1 DUP1 DUP1 MLOAD SWAP1 PUSH1 0x20 ADD SWAP1 SWAP3 SWAP2 SWAP1 DUP1 MLOAD SWAP1 PUSH1 0x20 ADD SWAP1 SWAP3 SWAP2 SWAP1 DUP1 MLOAD SWAP1 PUSH1 0x20 ADD SWAP1 SWAP3 SWAP2 SWAP1 DUP1 MLOAD SWAP1 PUSH1 0x20 ADD SWAP1 SWAP3 SWAP2 SWAP1 DUP1 MLOAD SWAP1 PUSH1 0x20 ADD SWAP1 SWAP3 SWAP2 SWAP1 DUP1 MLOAD SWAP1 PUSH1 0x20 ADD SWAP1 SWAP3 SWAP2 SWAP1 POP POP POP POP POP POP POP SWAP2 POP POP PUSH1 0x0 PUSH2 0x546 DUP3 PUSH2 0x64E JUMP JUMPDEST SWAP1 POP PUSH1 0x0 DUP2 PUSH20 0xFFFFFFFFFFFFFFFFFFFFFFFFFFFFFFFFFFFFFFFF AND EQ ISZERO PUSH2 0x576 JUMPI PUSH1 0x0 SWAP7 POP POP POP POP POP POP POP PUSH2 0x649 JUMP JUMPDEST PUSH1 0x0 PUSH2 0x5C8 DUP3 PUSH20 0xFFFFFFFFFFFFFFFFFFFFFFFFFFFFFFFFFFFFFFFF AND DUP4 PUSH20 0xFFFFFFFFFFFFFFFFFFFFFFFFFFFFFFFFFFFFFFFF AND PUSH25 0x1000000000000000000000000000000000000000000000000 PUSH2 0xA89 JUMP JUMPDEST SWAP1 POP PUSH1 0x0 PUSH2 0x5E0 DUP3 PUSH8 0xDE0B6B3A7640000 PUSH1 0x1 PUSH2 0xA89 JUMP JUMPDEST SWAP1 POP PUSH1 0x0 DUP7 PUSH1 0xFF AND DUP7 PUSH1 0xFF AND GT ISZERO PUSH2 0x60E JUMPI DUP7 DUP7 SUB PUSH1 0xFF AND PUSH1 0xA EXP SWAP1 POP DUP1 DUP3 DUP2 PUSH2 0x606 JUMPI INVALID JUMPDEST DIV SWAP10 POP PUSH2 0x63F JUMP JUMPDEST DUP6 PUSH1 0xFF AND DUP8 PUSH1 0xFF AND GT ISZERO PUSH2 0x63A JUMPI DUP6 DUP8 SUB PUSH1 0xFF AND PUSH1 0xA EXP SWAP1 POP PUSH2 0x633 DUP3 DUP3 PUSH1 0x1 PUSH2 0xA89 JUMP JUMPDEST SWAP10 POP PUSH2 0x63E JUMP JUMPDEST DUP2 SWAP10 POP JUMPDEST JUMPDEST POP POP POP POP POP POP POP POP POP JUMPDEST SWAP2 SWAP1 POP JUMP JUMPDEST PUSH1 0x0 DUP1 PUSH1 0x0 DUP4 PUSH1 0x2 SIGNEXTEND SLT PUSH2 0x665 JUMPI DUP3 PUSH1 0x2 SIGNEXTEND PUSH2 0x66D JUMP JUMPDEST DUP3 PUSH1 0x2 SIGNEXTEND PUSH1 0x0 SUB JUMPDEST SWAP1 POP PUSH32 0xFFFFFFFFFFFFFFFFFFFFFFFFFFFFFFFFFFFFFFFFFFFFFFFFFFFFFFFFFFF27618 PUSH1 0x0 SUB PUSH1 0x2 SIGNEXTEND DUP2 GT ISZERO PUSH2 0x70B JUMPI PUSH1 0x40 MLOAD PUSH32 0x8C379A000000000000000000000000000000000000000000000000000000000 DUP2 MSTORE PUSH1 0x4 ADD DUP1 DUP1 PUSH1 0x20 ADD DUP3 DUP2 SUB DUP3 MSTORE PUSH1 0x1 DUP2 MSTORE PUSH1 0x20 ADD DUP1 PUSH32 0x5400000000000000000000000000000000000000000000000000000000000000 DUP2 MSTORE POP PUSH1 0x20 ADD SWAP2 POP POP PUSH1 0x40 MLOAD DUP1 SWAP2 SUB SWAP1 REVERT JUMPDEST PUSH1 0x0 DUP1 PUSH1 0x1 DUP4 AND EQ ISZERO PUSH2 0x72F JUMPI PUSH17 0x100000000000000000000000000000000 PUSH2 0x741 JUMP JUMPDEST PUSH16 0xFFFCB933BD6FAD37AA2D162D1A594001 JUMPDEST PUSH17 0xFFFFFFFFFFFFFFFFFFFFFFFFFFFFFFFFFF AND SWAP1 POP PUSH1 0x0 PUSH1 0x2 DUP4 AND EQ PUSH2 0x77B JUMPI PUSH1 0x80 PUSH16 0xFFF97272373D413259A46990580E213A DUP3 MUL SWAP1 SHR SWAP1 POP JUMPDEST PUSH1 0x0 PUSH1 0x4 DUP4 AND EQ PUSH2 0x7A0 JUMPI PUSH1 0x80 PUSH16 0xFFF2E50F5F656932EF12357CF3C7FDCC DUP3 MUL SWAP1 SHR SWAP1 POP JUMPDEST PUSH1 0x0 PUSH1 0x8 DUP4 AND EQ PUSH2 0x7C5 JUMPI PUSH1 0x80 PUSH16 0xFFE5CACA7E10E4E61C3624EAA0941CD0 DUP3 MUL SWAP1 SHR SWAP1 POP JUMPDEST PUSH1 0x0 PUSH1 0x10 DUP4 AND EQ PUSH2 0x7EA JUMPI PUSH1 0x80 PUSH16 0xFFCB9843D60F6159C9DB58835C926644 DUP3 MUL SWAP1 SHR SWAP1 POP JUMPDEST PUSH1 0x0 PUSH1 0x20 DUP4 AND EQ PUSH2 0x80F JUMPI PUSH1 0x80 PUSH16 0xFF973B41FA98C081472E6896DFB254C0 DUP3 MUL SWAP1 SHR SWAP1 POP JUMPDEST PUSH1 0x0 PUSH1 0x40 DUP4 AND EQ PUSH2 0x834 JUMPI PUSH1 0x80 PUSH16 0xFF2EA16466C96A3843EC78B326B52861 DUP3 MUL SWAP1 SHR SWAP1 POP JUMPDEST PUSH1 0x0 PUSH1 0x80 DUP4 AND EQ PUSH2 0x859 JUMPI PUSH1 0x80 PUSH16 0xFE5DEE046A99A2A811C461F1969C3053 DUP3 MUL SWAP1 SHR SWAP1 POP JUMPDEST PUSH1 0x0 PUSH2 0x100 DUP4 AND EQ PUSH2 0x87F JUMPI PUSH1 0x80 PUSH16 0xFCBE86C7900A88AEDCFFC83B479AA3A4 DUP3 MUL SWAP1 SHR SWAP1 POP JUMPDEST PUSH1 0x0 PUSH2 0x200 DUP4 AND EQ PUSH2 0x8A5 JUMPI PUSH1 0x80 PUSH16 0xF987A7253AC413176F2B074CF7815E54 DUP3 MUL SWAP1 SHR SWAP1 POP JUMPDEST PUSH1 0x0 PUSH2 0x400 DUP4 AND EQ PUSH2 0x8CB JUMPI PUSH1 0x80 PUSH16 0xF3392B0822B70005940C7A398E4B70F3 DUP3 MUL SWAP1 SHR SWAP1 POP JUMPDEST PUSH1 0x0 PUSH2 0x800 DUP4 AND EQ PUSH2 0x8F1 JUMPI PUSH1 0x80 PUSH16 0xE7159475A2C29B7443B29C7FA6E889D9 DUP3 MUL SWAP1 SHR SWAP1 POP JUMPDEST PUSH1 0x0 PUSH2 0x1000 DUP4 AND EQ PUSH2 0x917 JUMPI PUSH1 0x80 PUSH16 0xD097F3BDFD2022B8845AD8F792AA5825 DUP3 MUL SWAP1 SHR SWAP1 POP JUMPDEST PUSH1 0x0 PUSH2 0x2000 DUP4 AND EQ PUSH2 0x93D JUMPI PUSH1 0x80 PUSH16 0xA9F746462D870FDF8A65DC1F90E061E5 DUP3 MUL SWAP1 SHR SWAP1 POP JUMPDEST PUSH1 0x0 PUSH2 0x4000 DUP4 AND EQ PUSH2 0x963 JUMPI PUSH1 0x80 PUSH16 0x70D869A156D2A1B890BB3DF62BAF32F7 DUP3 MUL SWAP1 SHR SWAP1 POP JUMPDEST PUSH1 0x0 PUSH2 0x8000 DUP4 AND EQ PUSH2 0x989 JUMPI PUSH1 0x80 PUSH16 0x31BE135F97D08FD981231505542FCFA6 DUP3 MUL SWAP1 SHR SWAP1 POP JUMPDEST PUSH1 0x0 PUSH3 0x10000 DUP4 AND EQ PUSH2 0x9B0 JUMPI PUSH1 0x80 PUSH16 0x9AA508B5B7A84E1C677DE54F3E99BC9 DUP3 MUL SWAP1 SHR SWAP1 POP JUMPDEST PUSH1 0x0 PUSH3 0x20000 DUP4 AND EQ PUSH2 0x9D6 JUMPI PUSH1 0x80 PUSH15 0x5D6AF8DEDB81196699C329225EE604 DUP3 MUL SWAP1 SHR SWAP1 POP JUMPDEST PUSH1 0x0 PUSH3 0x40000 DUP4 AND EQ PUSH2 0x9FB JUMPI PUSH1 0x80 PUSH14 0x2216E584F5FA1EA926041BEDFE98 DUP3 MUL SWAP1 SHR SWAP1 POP JUMPDEST PUSH1 0x0 PUSH3 0x80000 DUP4 AND EQ PUSH2 0xA1E JUMPI PUSH1 0x80 PUSH12 0x48A170391F7DC42444E8FA2 DUP3 MUL SWAP1 SHR SWAP1 POP JUMPDEST PUSH1 0x0 DUP5 PUSH1 0x2 SIGNEXTEND SGT ISZERO PUSH2 0xA57 JUMPI DUP1 PUSH32 0xFFFFFFFFFFFFFFFFFFFFFFFFFFFFFFFFFFFFFFFFFFFFFFFFFFFFFFFFFFFFFFFF DUP2 PUSH2 0xA53 JUMPI INVALID JUMPDEST DIV SWAP1 POP JUMPDEST PUSH1 0x0 PUSH5 0x100000000 DUP3 DUP2 PUSH2 0xA67 JUMPI INVALID JUMPDEST MOD EQ PUSH2 0xA74 JUMPI PUSH1 0x1 PUSH2 0xA77 JUMP JUMPDEST PUSH1 0x0 JUMPDEST PUSH1 0xFF AND PUSH1 0x20 DUP3 SWAP1 SHR ADD SWAP3 POP POP POP SWAP2 SWAP1 POP JUMP JUMPDEST PUSH1 0x0 DUP1 PUSH1 0x0 DUP1 NOT DUP6 DUP8 MULMOD DUP6 DUP8 MUL SWAP3 POP DUP3 DUP2 LT DUP4 DUP3 SUB SUB SWAP2 POP POP PUSH1 0x0 DUP2 EQ ISZERO PUSH2 0xAC4 JUMPI PUSH1 0x0 DUP5 GT PUSH2 0xAB8 JUMPI PUSH1 0x0 DUP1 REVERT JUMPDEST DUP4 DUP3 DIV SWAP3 POP POP POP PUSH2 0xB5C JUMP JUMPDEST DUP1 DUP5 GT PUSH2 0xAD0 JUMPI PUSH1 0x0 DUP1 REVERT JUMPDEST PUSH1 0x0 DUP5 DUP7 DUP9 MULMOD SWAP1 POP DUP3 DUP2 GT DUP3 SUB SWAP2 POP DUP1 DUP4 SUB SWAP3 POP PUSH1 0x0 DUP6 DUP7 PUSH1 0x0 SUB AND SWAP1 POP DUP1 DUP7 DIV SWAP6 POP DUP1 DUP5 DIV SWAP4 POP PUSH1 0x1 DUP2 DUP3 PUSH1 0x0 SUB DIV ADD SWAP1 POP DUP1 DUP4 MUL DUP5 OR SWAP4 POP PUSH1 0x0 PUSH1 0x2 DUP8 PUSH1 0x3 MUL XOR SWAP1 POP DUP1 DUP8 MUL PUSH1 0x2 SUB DUP2 MUL SWAP1 POP DUP1 DUP8 MUL PUSH1 0x2 SUB DUP2 MUL SWAP1 POP DUP1 DUP8 MUL PUSH1 0x2 SUB DUP2 MUL SWAP1 POP DUP1 DUP8 MUL PUSH1 0x2 SUB DUP2 MUL SWAP1 POP DUP1 DUP8 MUL PUSH1 0x2 SUB DUP2 MUL SWAP1 POP DUP1 DUP8 MUL PUSH1 0x2 SUB DUP2 MUL SWAP1 POP DUP1 DUP6 MUL SWAP6 POP POP POP POP POP POP JUMPDEST SWAP4 SWAP3 POP POP POP JUMP INVALID LOG2 PUSH5 0x6970667358 0x22 SLT KECCAK256 PUSH19 0x3A07056526188CF90CD691C56061AA8675B055 0xE SWAP10 CODECOPY JUMP DUP4 0x4D 0xBB CODESIZE 0xAE 0xD4 COINBASE CALLVALUE PUSH5 0x736F6C6343 STOP SMOD MOD STOP CALLER "
				},
				"gasEstimates": {
					"creation": {
						"codeDepositCost": "593800",
						"executionCost": "625",
						"totalCost": "594425"
					},
					"external": {
						"V3Pool()": "1022",
						"getPrice(address)": "infinite"
					}
				},
				"methodIdentifiers": {
					"V3Pool()": "11ea5441",
					"getPrice(address)": "41976e09"
				}
			},
			"storageLayout": {
				"storage": [
					{
						"astId": 3837,
						"contract": "veloOracle.sol:VeloOracle",
						"label": "V3Pool",
						"offset": 0,
						"slot": "0",
						"type": "t_contract(ICLPoolDerivedState)352"
					}
				],
				"types": {
					"t_contract(ICLPoolDerivedState)352": {
						"encoding": "inplace",
						"label": "contract ICLPoolDerivedState",
						"numberOfBytes": "20"
					}
				}
			},
			"userdoc": {
				"kind": "user",
				"methods": {},
				"version": 1
			}
		}
	}
}